:0400000007EF00F016
:0A0008007382DFED09F0B5EF13F08D
:10100000003738392F3435362A3132332D23303DED
:101010002B4D4F48414D45442048414D45440050DB
:101020006F74303A2000506F74313A2000506F7462
:0F103000323A2000506F74333A200025690000D7
:1010400016EC16F0EA0E106E000E116E44EC11F064
:10105000F10E1F6E000E206E8AEC0DF0F10E266E62
:10106000000E276E010E286E040E296E110E2A6ED8
:10107000100E2B6E65EC13F00B0E626E260E616E79
:101080005E0EE82EFED7612EFCD7622EFAD7F10E47
:101090001B6E000E1C6E010E1D6E25EC15F0F10E80
:1010A000266E000E276E010E286E010E296E1F0E91
:1010B0002A6E100E2B6E65EC13F0F10E266E000EEC
:1010C000276E020E286E010E296E260E2A6E100E55
:1010D0002B6E65EC13F0F10E266E000E276E030EDC
:1010E000286E010E296E2D0E2A6E100E2B6E65ECE9
:1010F00013F0F10E266E000E276E040E286E010E00
:10110000296E340E2A6E100E2B6E65EC13F06E50A5
:10111000D8A48DEF08F08FEF08F099EF08F0EA0EF1
:10112000156E000E166E000E176E82EC16F0D1EFE3
:1011300008F06E04D8A49FEF08F0A1EF08F0ABEF21
:1011400008F0EA0E156E000E166E010E176E82EC98
:1011500016F0D1EF08F0020E6E18D8A4B2EF08F026
:10116000B4EF08F0BEEF08F0EA0E156E000E166E32
:10117000020E176E82EC16F0D1EF08F0030E6E1817
:10118000D8A4C5EF08F0C7EF08F0D1EF08F0EA0ED9
:10119000156E000E166E030E176E82EC16F0D1EF70
:1011A00008F0D3C026F1D4C027F1C70E0101286F83
:1011B000000E296FA4EC11F0636ED1C026F1D2C0ED
:1011C00027F1C10E0101286F000E296FA4EC11F068
:1011D000636ECFC026F1D0C027F1BB0E0101286F8E
:1011E000000E296FA4EC11F0636ECDC026F1CEC0C5
:1011F00027F1B50E0101286F000E296FA4EC11F044
:10120000636EF10E266E000E276E010E286E070E1D
:10121000296EC70E2A6E000E2B6E65EC13F0F10ED0
:10122000266E000E276E020E286E070E296EC10E66
:101230002A6E000E2B6E65EC13F0F10E266E000E7A
:10124000276E030E286E070E296EBB0E2A6E000E47
:101250002B6E65EC13F0F10E266E000E276E040E59
:10126000286E070E296EB50E2A6E000E2B6E65ECE9
:1012700013F0F50E0001D35D010ED459D8A043EF51
:1012800009F045EF09F07EEF09F0F50ED15D010E92
:10129000D259D8A04EEF09F050EF09F07EEF09F0D7
:1012A000FA0E176E000E186E690E196E000E1A6E89
:1012B0001DEC10F06950D8A460EF09F062EF09F05E
:1012C00070EF09F06D0E176E000E186E76EC14F0CC
:1012D0006B0E176E000E186EB1EC14F08AEF09F069
:1012E0006B0E176E000E186E76EC14F06D0E176E06
:1012F000000E186EB1EC14F08AEF09F06D0E176E47
:10130000000E186EB1EC14F06B0E176E000E186E16
:10131000B1EC14F0F50E0001CF5D010ED059D8A04C
:1013200094EF09F096EF09F0CFEF09F0F50ECD5DDF
:10133000010ECE59D8A09FEF09F0A1EF09F0CFEF31
:1013400009F0F70E176E000E186E680E196E000E7B
:101350001A6E1DEC10F06850D8A4B1EF09F0B3EF8D
:1013600009F0C1EF09F06C0E176E000E186E76ECE6
:1013700014F06A0E176E000E186EB1EC14F087EFC1
:1013800008F06C0E176E000E186EB1EC14F06A0EB9
:10139000176E000E186E76EC14F087EF08F06C0EE6
:1013A000176E000E186EB1EC14F06A0E176E000E78
:1013B000186EB1EC14F087EF08F007EF00F00600AC
:1013C000FACF09F0FBCF0AF0D9CF0BF0DACF0CF04F
:1013D000F2A8EDEF09F0EFEF09F0F8EF09F0F2A253
:1013E000F4EF09F0F6EF09F0F8EF09F0B3EC17F0BD
:1013F000F0A6FDEF09F0FFEF09F008EF0AF0F0A00A
:1014000004EF0AF006EF0AF008EF0AF0B1EC17F06B
:10141000F0A80DEF0AF00FEF0AF018EF0AF0F0A2B3
:1014200014EF0AF016EF0AF018EF0AF0AFEC17F01D
:10143000F2A61DEF0AF01FEF0AF03AEF0AF0F2A051
:1014400024EF0AF026EF0AF03AEF0AF081A82BEF1A
:101450000AF02DEF0AF03AEF0AF06704D8A433EF50
:101460000AF035EF0AF03AEF0AF0000E676E000E50
:1014700098EC17F0F2A63FEF0AF041EF0AF05CEFAC
:101480000AF0F2A046EF0AF048EF0AF05CEF0AF02B
:1014900081B84DEF0AF04FEF0AF05CEF0AF06750A9
:1014A000D8A455EF0AF057EF0AF05CEF0AF0010EEE
:1014B000676E010E98EC17F0F2A661EF0AF063EF89
:1014C0000AF07EEF0AF0F2A068EF0AF06AEF0AF085
:1014D0007EEF0AF081AA6FEF0AF071EF0AF07EEF5B
:1014E0000AF06604D8A477EF0AF079EF0AF07EEFED
:1014F0000AF0000E666E000E8BEC17F0F2A683EF7A
:101500000AF085EF0AF0A0EF0AF0F2A08AEF0AF0E5
:101510008CEF0AF0A0EF0AF081BA91EF0AF093EF96
:101520000AF0A0EF0AF06650D8A499EF0AF09BEFFA
:101530000AF0A0EF0AF0010E666E010E8BEC17F0B8
:10154000F2A6A5EF0AF0A7EF0AF0C2EF0AF0F2A0A8
:10155000ACEF0AF0AEEF0AF0C2EF0AF081ACB3EFE5
:101560000AF0B5EF0AF0C2EF0AF06504D8A4BBEFA9
:101570000AF0BDEF0AF0C2EF0AF0000E656E000E31
:101580007EEC17F0F2A6C7EF0AF0C9EF0AF0E4EF1D
:101590000AF0F2A0CEEF0AF0D0EF0AF0E4EF0AF082
:1015A00081BCD5EF0AF0D7EF0AF0E4EF0AF06550FE
:1015B000D8A4DDEF0AF0DFEF0AF0E4EF0AF0010E45
:1015C000656E010E7EEC17F0F2A6E9EF0AF0EBEF84
:1015D0000AF006EF0BF0F2A0F0EF0AF0F2EF0AF0DB
:1015E00006EF0BF081AEF7EF0AF0F9EF0AF006EF25
:1015F0000BF06404D8A4FFEF0AF001EF0BF006EF44
:101600000BF0000E646E000E71EC17F0F2A60BEFFB
:101610000BF00DEF0BF028EF0BF0F2A012EF0BF038
:1016200014EF0BF028EF0BF081BE19EF0BF01BEF5E
:101630000BF028EF0BF06450D8A421EF0BF023EF50
:101640000BF028EF0BF0010E646E010E71EC17F039
:101650009DAC2DEF0BF02FEF0BF038EF0BF09EACA5
:1016600034EF0BF036EF0BF038EF0BF01DEC17F00A
:101670009DA83DEF0BF03FEF0BF048EF0BF09EA85D
:1016800044EF0BF046EF0BF048EF0BF0B5EC17F022
:101690009DAA4DEF0BF04FEF0BF058EF0BF09EAA09
:1016A00054EF0BF056EF0BF058EF0BF0B8EC17F0CF
:1016B0000CC0DAFF0BC0D9FF0AC0FBFF09C0FAFF5C
:1016C000739211002BBE67EF0BF06AEF0BF0010E67
:1016D0006BEF0BF0000E326E3250D8B472EF0BF09D
:1016E00074EF0BF078EF0BF02A6C2B1ED8B02B2A7E
:1016F000000183BF80EF0BF07EEF0BF086EF0BF065
:10170000000E2F6E010E2E6E8AEF0BF082C02EF0AF
:1017100083C02FF080C030F081C031F03250D8B497
:1017200094EF0BF096EF0BF0ADEF0BF03006D8A076
:1017300031063250D8A49FEF0BF0A1EF0BF0A7EFCA
:101740000BF0000E2D6E2B0E2C6EABEF0BF0000E7F
:101750002D6E2D0E2C6E2CC032F0000E346E1F0E2E
:10176000336E000E0101256FE6EF0BF03306D8A0B3
:101770003406060E3324D96E010E3420DA6E2AC0E8
:101780000DF02BC00EF0000E106E0A0E0F6EB9ECAD
:1017900012F00DC013F00EC014F0C6EC16F013508A
:1017A000300FDF6E2E06D8A02F063006D8A03106E7
:1017B0002AC00DF02BC00EF0000E106E0A0E0F6E38
:1017C00080EC10F00DC02AF00EC02BF034BEF1EF0B
:1017D0000BF0345008E13304D8A0F1EF0BF0F3EF35
:1017E0000BF009EF0CF02A502B10D8A4FAEF0BF0F5
:1017F000FCEF0BF0B6EF0BF02FBE09EF0CF02F5003
:1018000006E12E04D8B007EF0CF009EF0CF0B6EFAC
:101810000BF03250D8B40FEF0CF011EF0CF01CEFBE
:101820000CF03306D8A03406060E3324D96E010E10
:101830003420DA6E32C0DFFF28C01DF029C01EF050
:10184000060E33241F6E010E3420206E30C021F0AE
:1018500031C022F039EC14F012000DC017F00EC0A8
:1018600018F011501210D8A438EF0CF03AEF0CF029
:101870003CEF0CF0E7EF0CF017C0D9FF18C0DAFF0F
:101880000FC0DFFF11501724136E12501820146E72
:10189000FF0E1324D96EFF0E1420DA6E0FC0DFFF87
:1018A000125007E1030E115CD8B059EF0CF05BEF5A
:1018B0000CF05DEF0CF0E7EF0CF020EE01F01750AC
:1018C000D9261850DA220FC0DFFF20EE02F01750A1
:1018D000D9261850DA220FC0DFFF11501724136EDB
:1018E00012501820146EFE0E1324D96EFF0E142011
:1018F000DA6E0FC0DFFF11501724136E125018203C
:10190000146EFD0E1324D96EFF0E1420DA6E0FC074
:10191000DFFF125007E1070E115CD8B092EF0CF018
:1019200094EF0CF096EF0CF0E7EF0CF020EE03F0E4
:101930001750D9261850DA220FC0DFFF1150172494
:10194000136E12501820146EFC0E1324D96EFF0E65
:101950001420DA6E0FC0DFFF125007E1090E115C90
:10196000D8B0B5EF0CF0B7EF0CF0B9EF0CF0E7EF33
:101970000CF017C013F018C014F0131E141E134AF5
:10198000142A030E1314156E166A155017261650D6
:1019900018221550115E1650125AFC0E1116FF0E29
:1019A0001216DEEF0CF017C0D9FF18C0DAFF0FC017
:1019B000DFFF1106D8A01206174A182A115012107C
:1019C000D8A4E5EF0CF0E7EF0CF0D3EF0CF0120029
:1019D000010E156E0D500E10D8B4F1EF0CF0F3EFB0
:1019E0000CF004EF0DF00DC0D9FF0EC0DAFFDF30B0
:1019F000E832E832070B0F6E070E0F6402EF0DF0AE
:101A000004EF0DF067EF0DF0000E156E88EF0DF08E
:101A10000DC0D9FF0EC0DAFFDF30E832E832070B25
:101A20000F6E010E106E0F2A18EF0DF0D8901036C1
:101A30000F2E16EF0DF01050FF0A116E0DC0D9FFDA
:101A40000EC0DAFFDF50070B126E1250020DDF0ED0
:101A5000F324D96E000EF420DA6EDECF13F0DDCF62
:101A600014F013C0D9FF14C0DAFF1150DF1688EF4D
:101A70000DF00DC0D9FF0EC0DAFFDF30E832E832DA
:101A8000070B0F6E010E106E0F2A49EF0DF0D89064
:101A900010360F2E47EF0DF00DC0D9FF0EC0DAFF44
:101AA000DF50070B116E1150020DDF0EF324D96EBB
:101AB000000EF420DA6EDECF12F0DDCF13F012C08C
:101AC000D9FF13C0DAFF1050DF1288EF0DF00DC000
:101AD000D9FF0EC0DAFFDFBC70EF0DF073EF0DF031
:101AE000010E74EF0DF0000E0F6E106A1050000A18
:101AF000D8B47DEF0DF004EF0DF00F50000AD8B40C
:101B000008EF0DF0010AD8B439EF0DF004EF0DF035
:101B100015501200000E236E1F502010D8A493EF12
:101B20000DF095EF0DF099EF0DF0000E246E1EEF05
:101B30000EF01FC017F020C018F05EEC15F0246EF8
:101B4000010E1F24176E000E2020186E5EEC15F09B
:101B5000246E000E236E23501F24216E000E2020C1
:101B6000226E020E2124176E000E2220186E5EECEB
:101B700015F0232A030E2364C0EF0DF0C2EF0DF021
:101B8000ABEF0DF01A0E216EF80EE82EFED7212EC7
:101B9000FCD700D01FC01BF020C01CF0380E1D6EFB
:101BA00025EC15F0070E216E7D0EE82EFED7212EB6
:101BB000FCD700F01FC01BF020C01CF0380E1D6EBB
:101BC00025EC15F0320EE82EFED71FC01BF020C00A
:101BD0001CF0380E1D6E25EC15F01FC01BF020C048
:101BE0001CF0010E1D6E25EC15F01FC01BF020C06F
:101BF0001CF0020E1D6E25EC15F01FC01BF020C05E
:101C00001CF0060E1D6E25EC15F01FC01BF020C049
:101C10001CF00C0E1D6E25EC15F01FC01BF020C033
:101C20001CF0280E1D6E25EC15F01FC01BF020C007
:101C30001CF0800E1D6E25EC15F0246E2450120051
:101C400037C0D9FF38C0DAFFDECFF6FFDDCFF7FFB0
:101C5000F86A0800F550250AD8A431EF0EF033EFEA
:101C60000EF0A0EF0EF037C0D9FF38C0DAFFDE2A41
:101C7000000EDD22000E0001816F000E806F80C01B
:101C8000B0F08269836937C0D9FF38C0DAFFDECF90
:101C900041F0DDCF42F041C0F6FF42C0F7FFF86AE5
:101CA0000800F550640AD8B458EF0EF05AEF0EF061
:101CB00069EF0EF041C0F6FF42C0F7FFF86A080076
:101CC000F550690AD8A467EF0EF069EF0EF097EFB0
:101CD0000EF039C0D9FF3AC0DAFFDFCF3BF0020E79
:101CE000DE26DFCF3CF0000EDD223BC0D9FF3CC03A
:101CF000DAFFDECF3DF0DDCF3EF0010E41243B6E3A
:101D0000000E42203C6E37C0D9FF38C0DAFF3BC01E
:101D1000DEFF3CC0DDFF35C028F036C029F03DC0F5
:101D20002AF03EC02BF062EC0BF0B5EF0EF037C09E
:101D3000D9FF38C0DAFFDE2A000EDD22B5EF0EF043
:101D400037C0D9FF38C0DAFFDECFF6FFDDCFF7FFAF
:101D5000F86A0800F5500D6E0E6A35C00FF036C0F7
:101D600010F0B8EC0FF097EF0EF01200010E166EA7
:101D70000D500E10D8B4BFEF0EF0C1EF0EF0D2EF41
:101D80000EF00DC0D9FF0EC0DAFFDF30E832E832C6
:101D9000070B106E070E1064D0EF0EF0D2EF0EF0AE
:101DA00035EF0FF0000E166E4AEF0FF00DC0D9FFA1
:101DB0000EC0DAFFDF30E832E832070B106E010E9A
:101DC000116E102AE6EF0EF0D8901136102EE4EFC7
:101DD0000EF01150FF0A126E0DC0D9FF0EC0DAFFCF
:101DE000DF50070B136E1350020DD50EF324D96E7E
:101DF000000EF420DA6EDECF14F0DDCF15F014C043
:101E0000D9FF15C0DAFF1250DF164AEF0FF00DC0F0
:101E1000D9FF0EC0DAFFDF30E832E832070B106E70
:101E2000010E116E102A17EF0FF0D8901136102EF8
:101E300015EF0FF00DC0D9FF0EC0DAFFDF50070B12
:101E4000126E1250020DD50EF324D96E000EF4203E
:101E5000DA6EDECF13F0DDCF14F013C0D9FF14C05B
:101E6000DAFF1150DF124AEF0FF00F50106E116AB7
:101E70001150000AD8B43FEF0FF0D2EF0EF010501F
:101E8000000AD8B4D6EF0EF0010AD8B407EF0FF06D
:101E9000D2EF0EF0165012000F6E76EF0FF0928018
:101EA000B7EF0FF09282B7EF0FF09284B7EF0FF019
:101EB0009286B7EF0FF0928AB7EF0FF09680B7EFE8
:101EC0000FF09682B7EF0FF09684B7EF0FF0938480
:101ED000B7EF0FF09386B7EF0FF09382B7EF0FF0E5
:101EE0009388B7EF0FF09380B7EF0FF00F500D6EA0
:101EF0000E6A0E50000AD8B480EF0FF0B7EF0FF063
:101F00000D50000AD8B44FEF0FF0010AD8B452EFC9
:101F10000FF0030AD8B455EF0FF0010AD8B458EF08
:101F20000FF0070AD8B45BEF0FF0010AD8B45EEFE8
:101F30000FF0030AD8B461EF0FF0010AD8B464EFD0
:101F40000FF00F0AD8B467EF0FF0010AD8B46AEFA8
:101F50000FF0030AD8B46DEF0FF0010AD8B470EF98
:101F60000FF0070AD8B473EF0FF0B7EF0FF01200BD
:101F70000F501010D8B4BFEF0FF0C1EF0FF0CAEF41
:101F80000FF00F501010D8A4C8EF0FF0CAEF0FF0E9
:101F9000CFEF0FF00D50B7EC17F01CEF10F020EE64
:101FA0000AF00F50D9261050DA22DE50DE10D8B4D5
:101FB000DCEF0FF0DEEF0FF0F9EF0FF020EE0AF09C
:101FC0000F50D9261050DA2210EE03F00F50E12600
:101FD0001050E222DE50E65CE650800A156EDE50BC
:101FE000800A1558D8B0F7EF0FF0F9EF0FF01CEF9B
:101FF00010F020EE03F00F50D9261050DA22DECF79
:1020000011F0DDCF12F00FC0D9FF10C0DAFFDECF24
:1020100013F0DDCF14F011501324D96E1250142098
:10202000DA6E0DC0DFFF20EE03F00F50D9261050FE
:10203000DA22DE2A000EDD221200000E1D6E17507D
:102040001810D8B426EF10F028EF10F031EF10F090
:1020500019501A10D8A42FEF10F031EF10F035EF0F
:1020600010F0000E1C6E7EEF10F017C00DF018C0BF
:102070000EF01D0E0F6E000E106E02EC12F020EE30
:1020800002F01750D9261850DA22DF50D8A44BEFAF
:1020900010F04DEF10F064EF10F01D04D8A453EFD2
:1020A00010F055EF10F05CEF10F019C0D9FF1AC016
:1020B000DAFFDF6A7CEF10F019C0D9FF1AC0DAFF2F
:1020C000010EDF6E7CEF10F020EE02F01750D926E3
:1020D0001850DA22DE04D8A470EF10F072EF10F07E
:1020E0007CEF10F01D04D8A478EF10F07AEF10F018
:1020F00055EF10F05CEF10F0010E1C6E1C5012003A
:10210000000E126E10BE89EF10F087EF10F08FEF07
:1021100010F00F6C101ED8B0102A010E126E0EBEF9
:1021200096EF10F094EF10F09CEF10F00D6C0E1E77
:10213000D8B00E2A010E121A000E146E000E136E85
:102140000F501010D8B4A7EF10F0A9EF10F0D1EF96
:1021500010F0010E116EB1EF10F0D8900F3610365E
:10216000112A10AEB6EF10F0B8EF10F0ADEF10F08E
:10217000D890133614360F500D5C10500E58D8A05E
:10218000C4EF10F0C6EF10F0CBEF10F00F500D5E63
:1021900010500E5A1380D89010320F32112EB8EF13
:1021A00010F01250D8B4D7EF10F0D9EF10F0DDEFE7
:1021B00010F0136C141ED8B0142A13C00DF014C004
:1021C0000EF0120001500210D8B4E9EF10F0EBEF5E
:1021D00010F0F4EF10F003500410D8A4F2EF10F058
:1021E000F4EF10F0F8EF10F0000E086E42EF11F06F
:1021F00020EE06F00150D9260250DA22DFA203EFCA
:1022000011F005EF11F019EF11F0C350C4CF05F034
:10221000066A05C006F0056A0526000E062203C000
:10222000D9FF04C0DAFF05C0DEFF06C0DDFF40EFC6
:1022300011F020EE06F00150D9260250DA22DFB26A
:1022400024EF11F026EF11F005EF11F0C350C4CFC9
:1022500005F0066A05C006F0056A0526000E06228E
:10226000060E076E063406320532072E32EF11F0E5
:1022700003C0D9FF04C0DAFF05C0DEFF06C0DDFFE2
:10228000010E086E0850120010501110D8A44BEF28
:1022900011F04DEF11F051EF11F0000E136EA2EF9F
:1022A00011F0C29020EE03F01050D9261150DA221E
:1022B000DF50126E124612461246C0501218C70B5B
:1022C0001218C06E20EE04F01050D9261150DA22F8
:1022D000DF50126EC0501218F80B1218C06E20EEAC
:1022E00005F01050D9261150DA22DF50126E124636
:1022F0001246C2501218C30B1218C26E20EE05F01F
:102300001050D9261150DA22DF504CEC0FF0F28E2B
:10231000F28C9D8C9E9C10C0D9FF11C0DAFFDECFDD
:10232000AEF0DDCFAFF010C00DF011C00EF0A4EC98
:1023300016F010C00DF011C00EF03BEC16F0C2808C
:10234000010E136E13501200010E0101306F21EEC9
:102350002AF0050EDE6AE806FDE2000E316F285114
:102360002911D8A4B6EF11F0B8EF11F0BCEF11F0BD
:10237000000E306F00EF12F028C10DF029C10EF0F1
:10238000000E106E200E0F6E000E126E050E116EF6
:102390002DEC0CF0010120EE05F02851D926295131
:1023A000DA22DF6A2A0E4B6E010E4C6E3B0E4D6E2A
:1023B000100E4E6E26C14FF027C150F0F0EC15F014
:1023C000F1EF11F02A0E3125D96EDA6A010EDA2208
:1023D00031512825E16E000E2921E26EDFCFE7FFA3
:1023E000312B2A0E01013125D96EDA6A010EDA226B
:1023F000DF50D8A4FEEF11F000EF12F0E2EF11F081
:1024000030511200010E166E0D500E10D8B40BEFA5
:1024100012F00DEF12F027EF12F00F501010D8B499
:1024200014EF12F016EF12F027EF12F00DC0D9FFE3
:102430000EC0DAFFDF30E832E832070B116E070E0C
:10244000116425EF12F027EF12F02BEF12F0000EBF
:10245000166E5CEF12F00DC0D9FF0EC0DAFFDF3050
:10246000E832E832070B116E0DC0D9FF0EC0DAFF5B
:10247000DF50070B126E1250020D320EF324D96E8C
:10248000010EF420DA6EDECF13F0DDCF14F013C0AE
:10249000D9FF14C0DAFFDF50156E112A52EF12F087
:1024A000D8901532112E50EF12F01550010B0FC0BD
:1024B000D9FF10C0DAFFDF6E165012006E50D8A49C
:1024C00064EF12F066EF12F074EF12F0EA0E016E94
:1024D000000E026ED30E036E000E046EE2EC10F0DE
:1024E000010E6E6EB8EF12F06E04D8A47AEF12F0FF
:1024F0007CEF12F08AEF12F0EA0E016E000E026E0F
:10250000D10E036E000E046EE2EC10F0020E6E6E41
:10251000B8EF12F0020E6E18D8A491EF12F093EFFC
:1025200012F0A1EF12F0EA0E016E000E026ECF0E55
:10253000036E000E046EE2EC10F0030E6E6EB8EF48
:1025400012F0030E6E18D8A4A8EF12F0AAEF12F042
:10255000B8EF12F0EA0E016E000E026ECD0E036EA1
:10256000000E046EE2EC10F0000E6E6EB8EF12F08A
:102570001200000E126E0EBEC2EF12F0C0EF12F08B
:10258000C8EF12F00D6C0E1ED8B00E2A010E126E9E
:1025900010BECFEF12F0CDEF12F0D3EF12F00F6CB0
:1025A000101ED8B0102A0F501010D8B4DAEF12F065
:1025B000DCEF12F000EF13F0010E116EE4EF12F0F9
:1025C000D8900F361036112A10AEE9EF12F0EBEF6B
:1025D00012F0E0EF12F00F500D5C10500E58D8A022
:1025E000F4EF12F0F6EF12F0FAEF12F00F500D5E6A
:1025F00010500E5AD89010320F32112EEBEF12F00D
:102600001250D8B406EF13F008EF13F00CEF13F0EC
:102610000D6C0E1ED8B00E2A0DC00DF00EC00EF0BF
:102620001200010E256E220646EF13F01FC01BF0AC
:1026300020C01CF02250800F1D6E25EC15F0256E79
:1026400063EF13F01FC01BF020C01CF02250C00F1E
:102650001D6E25EC15F0256E63EF13F01FC01BF007
:1026600020C01CF02250940F1D6E25EC15F0256E35
:1026700063EF13F01FC01BF020C01CF02250D40FDA
:102680001D6E25EC15F0256E63EF13F02150236EBF
:10269000246A2450000AD8B450EF13F063EF13F00B
:1026A0002350010AD8B416EF13F0030AD8B422EF6E
:1026B00013F0010AD8B42EEF13F0070AD8B43AEF9A
:1026C00013F063EF13F02550120026502710D8A402
:1026D0006CEF13F06EEF13F072EF13F0000E2C6E30
:1026E000B3EF13F026C01FF027C020F028C021F060
:1026F00029C022F011EC13F02C6E9AEF13F026C0D3
:102700001BF027C01CF02AC0F6FF2BC0F7FF000EFD
:10271000F86E0F0EF76403D00800F55005D0F6CF21
:10272000E9FFF7CFEAFFEF501D6EECEC14F02C6ED2
:102730002A4A2B2A2AC0F6FF2BC0F7FF000EF86E9C
:102740000F0EF76403D00800F55005D0F6CFE9FF6F
:10275000F7CFEAFFEF500009D8A4B1EF13F0B3EFC1
:1027600013F07FEF13F02C501200540EF66E2F0E64
:10277000F76E000EF86E01EE32F010EE0AF009006E
:10278000F5CFEEFFE550E150FAE1960EF66E2E0E13
:10279000F76E000EF86E00EED5F010EE28F009008E
:1027A000F5CFEEFFE550E150FAE14A0EF66E2F0E3E
:1027B000F76E000EF86E00EE64F010EE0AF00900FD
:1027C000F5CFEEFFE550E150FAE101EE00F0260E04
:1027D000EE6AE806FDE100EE80F0550EEE6AE806CE
:1027E000FDE1726A716A706A6F6A6E6A73907392C1
:1027F000000120EF08F0010E1E6E1B501C10D8A423
:1028000004EF14F006EF14F00AEF14F0000E1E6E41
:1028100037EF14F072C01FF01BC0D9FF1CC0DAFFE5
:10282000DF500F0B1D6E1F501D18F80B1D181F6E6B
:102830001BC0D9FF1CC0DAFFDF38070B1D6E1D4619
:102840001D461D461F501D18C70B1D181F6E1F9CCF
:102850001BC0D9FF1CC0DAFFDFAE02D01F8E01D033
:102860001F9E1F0E176E000E186E5EEC15F01E50A8
:10287000120022BE3EEF14F040EF14F046EF14F0C9
:1028800021C026F022C027F04AEF14F0000E276E78
:10289000000E266E000E256E000E246E5CEF14F006
:1028A000000E0E6E200E0D6E1DC00FF01EC010F03B
:1028B000B8EC0FF0244A252A2650245C2550800AC3
:1028C000236E2750800A2358D8A069EF14F06BEFCD
:1028D00014F050EF14F01FC016F020C017F01DC008
:1028E00018F01EC019F060EC16F012001750181006
:1028F000D8A47DEF14F07FEF14F081EF14F0B0EF67
:1029000014F071C01AF017C0D9FF18C0DAFFDF50F9
:102910000F0B196E1A501918F80B19181A6E17C0E8
:10292000D9FF18C0DAFFDF38070B196E19461946B0
:1029300019461A501918C70B19181A6E1A9C17C085
:10294000D9FF18C0DAFFDFAE02D01A8E01D01A9E6E
:102950001A0E0D6E000E0E6E010E0F6EB6EC0EF01E
:10296000120017501810D8A4B8EF14F0BAEF14F0F2
:10297000BCEF14F0EBEF14F070C01AF017C0D9FFE1
:1029800018C0DAFFDF500F0B196E1A501918F80B28
:1029900019181A6E17C0D9FF18C0DAFFDF38070BF5
:1029A000196E1946194619461A501918C70B1918E5
:1029B0001A6E1A9C17C0D9FF18C0DAFFDFAE02D01A
:1029C0001A8E01D01A9E1A0E0D6E000E0E6E000E9B
:1029D0000F6EB6EC0EF012001B501C10D8A4F3EFD3
:1029E00014F0F5EF14F0F9EF14F0000E1E6E23EF63
:1029F00015F01BC00DF01CC00EF0010E0F6EB6ECF2
:102A00000EF01E6E1BC017F01CC018F01D380F0B07
:102A1000196E94EC15F01E6E1BC017F01CC018F058
:102A200003EC17F01E6E1BC017F01CC018F01DC081
:102A300019F094EC15F01E6E1BC017F01CC018F0B6
:102A400003EC17F01E6E1E5012001B501C10D8A471
:102A50002CEF15F02EEF15F032EF15F0000E1E6E74
:102A60005CEF15F01BC00DF01CC00EF0000E0F6ED9
:102A7000B6EC0EF01E6E1BC017F01CC018F01D380F
:102A80000F0B196E94EC15F01E6E1BC017F01CC0D6
:102A900018F003EC17F01E6E1BC017F01CC018F0E6
:102AA0001DC019F094EC15F01E6E1BC017F01CC071
:102AB00018F003EC17F01E6E1E501200175018107D
:102AC000D8B465EF15F067EF15F078EF15F017C083
:102AD000D9FF18C0DAFFDF30E832E832070B196E91
:102AE000070E196476EF15F078EF15F07CEF15F00E
:102AF000000E1A6E92EF15F017C00DF018C00EF010
:102B0000E8EC0CF01A6E17C00DF018C00EF017C0EC
:102B1000D9FF18C0DAFF000EDFBE010E0F6EB6EC53
:102B20000EF01A6E1A501200020E17240D6E000ECF
:102B300018200E6E1950010B0F6EB6EC0EF0030E3E
:102B400017240D6E000E18200E6ED8901930010B50
:102B50000F6EB6EC0EF0040E17240D6E000E18204A
:102B60000E6E1940E8423F0B010B0F6EB6EC0EF0F3
:102B7000050E17240D6E000E18200E6E1938E8464B
:102B80001F0B010B0F6EB6EC0EF01A6E1A501200EE
:102B900045C049F046C04AF0DCEF15F043C035F0BF
:102BA00044C036F0490E376E000E386E47C039F01B
:102BB00048C03AF020EC0EF049C0F6FF4AC0F7FFDB
:102BC000F86A0800F5500009D8A4E9EF15F0EBEF1A
:102BD00015F0CEEF15F0000E446E000E436E12009D
:102BE0004F0E536E000E546E4BC055F04CC056F055
:102BF000000E596E000E586E000E606E000E5F6E75
:102C0000550E436E000E446E4DC045F04EC046F06A
:102C1000530E476E000E486EC8EC15F058504B240A
:102C2000D96E59504C20DA6EDF6A12006D0E1B6EA1
:102C3000000E1C6EFBEC13F06C0E1B6E000E1C6E77
:102C4000FBEC13F06B0E1B6E000E1C6EFBEC13F016
:102C50006A0E1B6E000E1C6EFBEC13F0F70E166E68
:102C6000000E176E35EC17F0FA0E166E000E176E8A
:102C700035EC17F0120020EE06F00D50D9260E505C
:102C8000DA22DFA046EF16F048EF16F04CEF16F010
:102C9000C18AC1885FEF16F020EE06F00D50D926EC
:102CA0000E50DA22DFB057EF16F059EF16F05DEF55
:102CB00016F0C19AC1985FEF16F0C19AC198120040
:102CC000000E1C6E000E1B6E71EF16F01AC00DF098
:102CD0000E6A18C00FF019C010F0B8EC0FF01B4AC4
:102CE0001C2A1B501624D96E1C501720DA6EDF5098
:102CF0001A6E1A50D8A47FEF16F081EF16F066EF27
:102D000016F0120015501610D8A489EF16F08BEFAC
:102D100016F08FEF16F0000E186EA2EF16F09E9CC4
:102D200015C010F016C011F017C012F0E6EC16F046
:102D3000186E15C00DF016C00EF05FEC17F0186E8F
:102D4000010E186E1850120020EE06F00D50D92614
:102D50000E50DA22DFA2AFEF16F0B1EF16F0B4EFAB
:102D600016F0C08EC5EF16F020EE06F00D50D926F5
:102D70000E50DA22DFB2BFEF16F0C1EF16F0C4EF4B
:102D800016F0C09EC5EF16F0C08E120014BED3EF31
:102D900016F0145006E11304D8B0D1EF16F0D3EFBB
:102DA00016F0E1EF16F013C015F014C016F0151E62
:102DB000161E154A162A15C013F016C014F0E5EFBA
:102DC00016F013C013F014C014F0120010501110BC
:102DD000D8A4EDEF16F0EFEF16F0F3EF16F0000EBB
:102DE000146E01EF17F012C013F013461346C250D1
:102DF0001318C30B1318C26E12504CEC0FF0010ED7
:102E0000146E14501200010E17240D6E000E1820BF
:102E10000E6E010E0F6EB6EC0EF000D000D000F07A
:102E2000010E17240D6E000E18200E6E000E0F6E90
:102E3000B6EC0EF0196E195012009E9C0001AE51B6
:102E4000AF11D8B426EF17F028EF17F034EF17F0D2
:102E500002D834EF17F00500FA6EAE51FD6EAF5197
:102E6000FE6EFF6AFA501200120016501710D8A416
:102E70003CEF17F03EEF17F042EF17F0000E186E20
:102E800049EF17F016C00DF017C00EF0E8EC0CF08B
:102E9000186E18501200890F8A0F8B0F8C0F8D0F30
:102EA000920F930F940F950F960F01BC2400050508
:102EB0000002020A121A222A6B01006301000D505F
:102EC0000E10D8A466EF17F068EF17F06CEF17F04C
:102ED000000E0F6E6FEF17F0C282010E0F6E0F50D3
:102EE0001200016EF2900150D8A479EF17F07BEF39
:102EF00017F07DEF17F07DEF17F01200016EF290E2
:102F00000150D8A486EF17F088EF17F08AEF17F07A
:102F10008AEF17F01200016EF2900150D8A493EFDF
:102F200017F095EF17F097EF17F097EF17F01200E3
:102F3000016EF2900150D8A4A0EF17F0A2EF17F0A5
:102F4000A4EF17F0A4EF17F0120001010101010135
:102F500033231303800F810F820F830F840FF092AE
:102F60001200F0901200F29212009D9812001200CE
:022F700012004D
:020000040020DA
:08000000FFFFFFFFFFFFFFFF00
:020000040030CA
:0E000000FF02091EFF8181FF0FC00FE00F40BD
:00000001FF
