:0400000007EF00F016
:0A0008007E8210ED0DF0DAEF17F024
:10100000003738392F3435362A3132332D23303DED
:101010002B6D6F746F7231206F6666200D006D6FDF
:10102000746F7232206F6666200D006D6F746F7280
:1010300031206F6E200D006D6F746F7232206F6EF5
:10104000200D006C656431206F6666200D006C65B4
:101050006432206F6666200D006C656431206F6E0F
:10106000200D006C656432206F6E200D0025690034
:01107000007F
:10107200000E3D6E000E3E6E000E3F6E000E406E84
:1010820069EF0AF0AC98AC94B89639C0D9FF3AC06F
:10109200DAFFDECF3BF0DDCF3CF03BC002F03CC0DC
:1010A20003F0046A056A000EC3EC11F002C014F0EA
:1010B20003C015F004C016F005C017F0000E106E44
:1010C200240E116EF40E126E4A0E136E03EC0FF024
:1010D20010C041F011C042F012C043F013C044F0FE
:1010E200000E146E000E156E800E166E420E176EF6
:1010F20041C010F042C011F043C012F044C013F0DE
:1011020003EC0FF010C029F011C02AF012C02BF02E
:1011120013C02CF0000E2D6E000E2E6E800E2F6E60
:10112200BF0E306EB0EC0AF029C03DF02AC03EF08E
:101132002BC03FF02CC040F094EF0AF0AC98AC8486
:10114200B89639C0D9FF3AC0DAFFDECF3BF0DDCF27
:101152003CF03BC002F03CC003F0046A056A000E9A
:10116200C3EC11F002C014F003C015F004C016F075
:1011720005C017F0000E106E240E116EF40E126EE2
:101182004A0E136E03EC0FF010C041F011C042F092
:1011920012C043F013C044F0000E146E000E156E20
:1011A200800E166E410E176E41C010F042C011F053
:1011B20043C012F044C013F003EC0FF010C029F04A
:1011C20011C02AF012C02BF013C02CF0000E2D6EAD
:1011D200000E2E6E800E2F6EBF0E306EB0EC0AF037
:1011E20029C03DF02AC03EF02BC03FF02CC040F099
:1011F20094EF0AF0AC98AC94B88639C0D9FF3AC0E3
:10120200DAFFDECF3BF0DDCF3CF03BC002F03CC06A
:1012120003F0046A056A000EC3EC11F002C014F078
:1012220003C015F004C016F005C017F0000E106ED2
:10123200240E116EF40E126E4A0E136E03EC0FF0B2
:1012420010C041F011C042F012C043F013C044F08C
:10125200000E146E000E156E800E166E410E176E85
:1012620041C010F042C011F043C012F044C013F06C
:1012720003EC0FF010C029F011C02AF012C02BF0BD
:1012820013C02CF0000E2D6E000E2E6E800E2F6EEF
:10129200BF0E306EB0EC0AF029C03DF02AC03EF01D
:1012A2002BC03FF02CC040F094EF0AF0AC98AC8415
:1012B200B88639C0D9FF3AC0DAFFDECF3BF0DDCFC6
:1012C2003CF03BC002F03CC003F0046A056A000E29
:1012D200C3EC11F002C014F003C015F004C016F004
:1012E20005C017F0000E106E240E116EF40E126E71
:1012F2004A0E136E03EC0FF010C041F011C042F021
:1013020012C043F013C044F0000E146E000E156EAE
:10131200800E166E400E176E41C010F042C011F0E2
:1013220043C012F044C013F003EC0FF010C029F0D8
:1013320011C02AF012C02BF013C02CF0000E2D6E3B
:10134200000E2E6E800E2F6EBF0E306EB0EC0AF0C5
:1013520029C03DF02AC03EF02BC03FF02CC040F027
:1013620094EF0AF0AC88B89639C0D9FF3AC0DAFFD8
:10137200DECF3BF0DDCF3CF03BC002F03CC003F0DF
:10138200046A056A000EC3EC11F002C014F003C037
:1013920015F004C016F005C017F0000E106E240EF2
:1013A200116EF40E126E4A0E136E03EC0FF010C0A3
:1013B20041F011C042F012C043F013C044F0000EDD
:1013C200146E000E156E800E166E400E176E41C022
:1013D20010F042C011F043C012F044C013F003EC0D
:1013E2000FF010C029F011C02AF012C02BF013C068
:1013F2002CF0000E2D6E000E2E6E800E2F6EBF0E84
:10140200306EB0EC0AF029C03DF02AC03EF02BC08D
:101412003FF02CC040F094EF0AF0AC88B88639C097
:10142200D9FF3AC0DAFFDECF3BF0DDCF3CF03BC064
:1014320002F03CC003F0046A056A000EC3EC11F02E
:1014420002C014F003C015F004C016F005C017F076
:10145200000E106E240E116EF40E126E4A0E136EF2
:1014620003EC0FF010C041F011C042F012C043F083
:1014720013C044F0000E146E000E156E800E166E30
:10148200400E176E41C010F042C011F043C012F07E
:1014920044C013F003EC0FF010C029F011C02AF081
:1014A20012C02BF013C02CF0000E2D6E000E2E6E0B
:1014B200800E2F6EBF0E306EB0EC0AF029C03DF0E8
:1014C2002AC03EF02BC03FF02CC040F094EF0AF04F
:1014D20020EE02F03950D9263A50DA22DF503B6E24
:1014E2003C6A3C50000AD8B479EF0AF094EF0AF053
:1014F2003B50000AD8B443EF08F0010AD8B49FEF7A
:1015020008F0030AD8B4FBEF08F0010AD8B457EF89
:1015120009F0070AD8B4B3EF09F0010AD8B40EEF04
:101522000AF094EF0AF03DC002F03EC003F03FC063
:1015320004F040C005F0D5EC13F00250AF6E3DC090
:1015420002F03EC003F03FC004F040C005F0D5EC0D
:1015520013F003C002F0036A0250B06E12002C5066
:10156200800B356E2C502C24376E2BAEBBEF0AF05D
:10157200BDEF0AF0BEEF0AF037803750D8B4C4EF9F
:101582000AF0C6EF0AF0DBEF0AF03728D8A4CCEF56
:101592000AF0CEEF0AF0D6EF0AF0000E296E000E26
:1015A2002A6E000E2B6E000E2C6E2B8E000E2C6EF1
:1015B200E3EF0AF0000E296E000E2A6E000E2B6E6B
:1015C200000E2C6E3050800B366E35503618D8B463
:1015D200EDEF0AF0EFEF0AF0F0EF0AF0358C305041
:1015E2003024366E2FAEF8EF0AF0FAEF0AF0FBEF76
:1015F2000AF036803650D8B401EF0BF003EF0BF04F
:1016020018EF0BF03628D8A409EF0BF00BEF0BF014
:1016120013EF0BF0000E2D6E000E2E6E000E2F6ECD
:10162200000E306E2F8E000E306E20EF0BF0000E8B
:101632002D6E000E2E6E000E2F6E000E306E375085
:10164200365CD8B027EF0BF029EF0BF050EF0BF020
:1016520035AC2EEF0BF030EF0BF032EF0BF0800ECB
:10166200351A37C038F036C037F038C036F029C0E6
:1016720038F02DC029F038C02DF02AC038F02EC025
:101682002AF038C02EF02BC038F02FC02BF038C013
:101692002FF02CC038F030C02CF038C030F0000EE3
:1016A200386E375036C031F0326A315E000E325A2F
:1016B20032BE65EF0BF0325009E11A0E315CD8A050
:1016C20065EF0BF067EF0BF09EEF0BF029502A103D
:1016D2002B102C10D8A470EF0BF073EF0BF0010E4F
:1016E20074EF0BF0000E386E000E296E000E2A6E9B
:1016F200000E2B6E000E2C6E36C037F0A7EF0BF0EB
:1017020038A086EF0BF088EF0BF08EEF0BF0D8903D
:1017120038300109386E90EF0BF0D890383229A09A
:1017220095EF0BF097EF0BF098EF0BF0388E2C340F
:101732002C322B322A322932372A3650375CD8A043
:10174200A5EF0BF0A7EF0BF081EF0BF035BCACEF80
:101752000BF0AEEF0BF0EEEF0BF03750D8A4B4EF76
:101762000BF0B6EF0BF0C0EF0BF0000E296E000E7F
:101772002A6E000E2B6E000E2C6E0FEF0DF02D5008
:1017820029262E502A222F502B2230502C222CA0D8
:10179200CDEF0BF0CFEF0BF07BEF0CF038A0D4EFD6
:1017A2000BF0D6EF0BF0DCEF0BF0D89038300109DC
:1017B200386EDEEF0BF0D890383229A0E3EF0BF051
:1017C200E5EF0BF0E6EF0BF0388E2C342C322B3297
:1017D2002A322932372A7BEF0CF02D50295C2E5009
:1017E2002A582F502B582C50800A316E3050800AC4
:1017F2003158D8B0FFEF0BF001EF0CF02CEF0CF0EA
:1018020029502D5C316E2A502E58326E2B502F5893
:10181200336E2C503058346EFF0E3124296EFF0E79
:1018220032202A6EFF0E33202B6EFF0E34202C6ED8
:10183200800E351A386C3850D8A422EF0CF024EF01
:101842000CF034EF0CF0010E2926000E2A222B2276
:101852002C2234EF0CF02D50295E2E502A5A2F5094
:101862002B5A30502C5A29502A102B102C10D8A445
:101872003DEF0CF03FEF0CF074EF0CF03850D8A4B1
:1018820045EF0CF047EF0CF074EF0CF0000E296EF0
:10189200000E2A6E000E2B6E000E2C6E0FEF0DF056
:1018A200D89029362A362B362C3638AE5BEF0CF020
:1018B2005DEF0CF05EEF0CF0298038A063EF0CF0C6
:1018C20065EF0CF069EF0CF0D88038366BEF0CF056
:1018D200D89038363750D8B471EF0CF073EF0CF063
:1018E20074EF0CF037062BAE79EF0CF07BEF0CF0B7
:1018F20051EF0CF0000E366E38AE82EF0CF084EF32
:101902000CF09CEF0CF038C031F07F0E3116D8B4D9
:101912008DEF0CF08FEF0CF093EF0CF0010E366EA2
:101922009CEF0CF029A098EF0CF09AEF0CF09CEFD2
:101932000CF08FEF0CF03650D8B4A2EF0CF0A4EFFD
:101942000CF0CFEF0CF0010E2926000E2A222B22DA
:101952002C222CA0AFEF0CF0B1EF0CF0CFEF0CF07B
:1019620029C031F02AC032F02BC033F02CC034F041
:101972003434343233323232313231C029F032C06F
:101982002AF033C02BF034C02CF03728D8B4CCEF77
:101992000CF0CEEF0CF0CFEF0CF0372A3728D8B48A
:1019A200D5EF0CF0D7EF0CF0DFEF0CF03750D8A4E6
:1019B200DDEF0CF0DFEF0CF0F1EF0CF0000E296E12
:1019C200000E2A6E000E2B6E000E2C6E3750D8A41D
:1019D200EDEF0CF0EFEF0CF0F1EF0CF0000E356EC6
:1019E20037A0F6EF0CF0F8EF0CF0FBEF0CF02B8EBB
:1019F200FCEF0CF02B9ED89037302C6E35AE04EFF6
:101A02000DF006EF0DF007EF0DF02C8E29C029F036
:101A12002AC02AF02BC02BF02CC02CF0120006009A
:101A2200F2A816EF0DF018EF0DF021EF0DF0F2A273
:101A32001DEF0DF01FEF0DF021EF0DF05BEC19F033
:101A4200F0A626EF0DF028EF0DF031EF0DF0F0A02B
:101A52002DEF0DF02FEF0DF031EF0DF059EC19F0E5
:101A6200F0A836EF0DF038EF0DF041EF0DF0F0A2D7
:101A72003DEF0DF03FEF0DF041EF0DF057EC19F097
:101A8200F2A646EF0DF048EF0DF063EF0DF0F2A075
:101A92004DEF0DF04FEF0DF063EF0DF081A854EF15
:101AA2000DF056EF0DF063EF0DF07804D8A45CEF63
:101AB2000DF05EEF0DF063EF0DF0000E786E000E8C
:101AC2002BEC19F0F2A668EF0DF06AEF0DF085EF3E
:101AD2000DF0F2A06FEF0DF071EF0DF085EF0DF04C
:101AE20081B876EF0DF078EF0DF085EF0DF07850BC
:101AF200D8A47EEF0DF080EF0DF085EF0DF0010E12
:101B0200786E010E2BEC19F0F2A68AEF0DF08CEF35
:101B12000DF0A7EF0DF0F2A091EF0DF093EF0DF0A5
:101B2200A7EF0DF081AA98EF0DF09AEF0DF0A7EF55
:101B32000DF07704D8A4A0EF0DF0A2EF0DF0A7EFFF
:101B42000DF0000E776E000E1EEC19F0F2A6ACEF4F
:101B52000DF0AEEF0DF0C9EF0DF0F2A0B3EF0DF006
:101B6200B5EF0DF0C9EF0DF081BABAEF0DF0BCEF91
:101B72000DF0C9EF0DF07750D8A4C2EF0DF0C4EF0D
:101B82000DF0C9EF0DF0010E776E010E1EEC19F08B
:101B9200F2A6CEEF0DF0D0EF0DF0EBEF0DF0F2A0CC
:101BA200D5EF0DF0D7EF0DF0EBEF0DF081ACDCEFE0
:101BB2000DF0DEEF0DF0EBEF0DF07604D8A4E4EFBC
:101BC2000DF0E6EF0DF0EBEF0DF0000E766E000E6D
:101BD20011EC19F0F2A6F0EF0DF0F2EF0DF00DEFAF
:101BE2000EF0F2A0F7EF0DF0F9EF0DF00DEF0EF0A1
:101BF20081BCFEEF0DF000EF0EF00DEF0EF076500F
:101C0200D8A406EF0EF008EF0EF00DEF0EF0010E65
:101C1200766E010E11EC19F0F2A612EF0EF014EF2F
:101C22000EF02FEF0EF0F2A019EF0EF01BEF0EF0F8
:101C32002FEF0EF081AE20EF0EF022EF0EF02FEF1D
:101C42000EF07504D8A428EF0EF02AEF0EF02FEF55
:101C52000EF0000E756E000E04EC19F0F2A634EFD1
:101C62000EF036EF0EF051EF0EF0F2A03BEF0EF059
:101C72003DEF0EF051EF0EF081BE42EF0EF044EF59
:101C82000EF051EF0EF07550D8A44AEF0EF04CEF63
:101C92000EF051EF0EF0010E756E010E04EC19F00C
:101CA2009DAC56EF0EF058EF0EF061EF0EF09EACC9
:101CB2005DEF0EF05FEF0EF061EF0EF063EC19F0E6
:101CC200F2AA66EF0EF068EF0EF071EF0EF0F2A4DA
:101CD2006DEF0EF06FEF0EF071EF0EF044EC19F0B5
:101CE2009DA076EF0EF078EF0EF081EF0EF09EA041
:101CF2007DEF0EF07FEF0EF081EF0EF03EEC19F06B
:101D02009DA286EF0EF088EF0EF091EF0EF09EA2EC
:101D12008DEF0EF08FEF0EF091EF0EF04FEC19F009
:101D2200A0A296EF0EF098EF0EF0A1EF0EF0A1A296
:101D32009DEF0EF09FEF0EF0A1EF0EF038EC19F0D0
:101D42009DA4A6EF0EF0A8EF0EF0B1EF0EF09EA448
:101D5200ADEF0EF0AFEF0EF0B1EF0EF061EC19F057
:101D6200A0A0B6EF0EF0B8EF0EF0C1EF0EF0A1A0FA
:101D7200BDEF0EF0BFEF0EF0C1EF0EF05FEC19F009
:101D82009DA8C6EF0EF0C8EF0EF0D1EF0EF09EA8A0
:101D9200CDEF0EF0CFEF0EF0D1EF0EF05DEC19F0BB
:101DA2009DAAD6EF0EF0D8EF0EF0E1EF0EF09EAA4C
:101DB200DDEF0EF0DFEF0EF0E1EF0EF065EC19F063
:101DC2009DA6E6EF0EF0E8EF0EF0F1EF0EF09EA604
:101DD200EDEF0EF0EFEF0EF0F1EF0EF053EC19F025
:101DE200A0A6F6EF0EF0F8EF0EF001EF0FF0A1A6AD
:101DF200FDEF0EF0FFEF0EF001EF0FF055EC19F0D2
:101E02007E9211001350800B206E13501324276E04
:101E120012AE0EEF0FF010EF0FF011EF0FF0278060
:101E22002750D8B417EF0FF019EF0FF02EEF0FF085
:101E32002728D8A41FEF0FF021EF0FF029EF0FF0A2
:101E4200000E106E000E116E000E126E000E136E5A
:101E5200128E000E136E36EF0FF0000E106E000E93
:101E6200116E000E126E000E136E1750800B201AA8
:101E720017501724286E16AE41EF0FF043EF0FF004
:101E820044EF0FF028802850D8B44AEF0FF04CEFFF
:101E92000FF061EF0FF02828D8A452EF0FF054EFA3
:101EA2000FF05CEF0FF0000E146E000E156E000EB8
:101EB200166E000E176E168E000E176E69EF0FF07B
:101EC200000E146E000E156E000E166E000E176ECA
:101ED2001450151016101710D8A472EF0FF074EFEB
:101EE2000FF08CEF0FF0000E106E000E116E000E50
:101EF200126E000E136E800E12127F0E13122050FD
:101F0200131210C010F011C011F012C012F013C061
:101F120013F0CFEF10F02750D8A492EF0FF094EF08
:101F22000FF09EEF0FF0000E106E000E116E000EFD
:101F3200126E000E136ECFEF10F0285027C018F06B
:101F4200196A185E000E195A7F0E1824216E000EAF
:101F52001920226E10C01CF011C01DF012C01EF01C
:101F620013C01FF0000E106E000E116E000E126EE6
:101F7200000E136E000E236E000E246E000E256EF0
:101F8200000E266E000E286EFFEF0FF02850D8B418
:101F9200CDEF0FF0CFEF0FF0E6EF0FF0D8901C3639
:101FA2001D361E361F36D8901036113612361336AD
:101FB20026AEDEEF0FF0E0EF0FF0E1EF0FF0108052
:101FC200D890233624362536263614501C5C1550FC
:101FD2001D5816501E5817501F58D8A0F3EF0FF077
:101FE200F5EF0FF0FEEF0FF0268C14501C5E15502B
:101FF2001D5A16501E5A17501F5A282A190E2864A5
:1020020005EF10F007EF10F0C7EF0FF01C501D1096
:102012001E101F10D8B410EF10F012EF10F02AEFBC
:1020220010F023802AEF10F0D890103611361236B5
:10203200133626AE1FEF10F021EF10F022EF10F052
:102042001080D89023362436253626362106D8A08D
:10205200220612AE2FEF10F031EF10F015EF10F054
:10206200000E286E26AE38EF10F03AEF10F05EEF59
:1020720010F0FF0E2314186EFF0E2414196EFF0EBB
:1020820025141A6E7F0E26141B6E185019101A1082
:102092001B10D8B44FEF10F051EF10F055EF10F0C5
:1020A200010E286E5EEF10F010A05AEF10F05CEFF8
:1020B20010F05EEF10F051EF10F02850D8B464EF3A
:1020C20010F066EF10F08AEF10F0010E1026000EED
:1020D20011221222132213A071EF10F073EF10F0ED
:1020E2008AEF10F010C018F011C019F012C01AF0E7
:1020F20013C01BF01B341B321A321932183218C0AB
:1021020010F019C011F01AC012F01BC013F0214ACE
:10211200222A22BE95EF10F0225008E12128D8A0F1
:1021220095EF10F097EF10F0A2EF10F0000E226E74
:102132002168000E106E000E116E000E126E000E5F
:10214200136E22BEAFEF10F0225006E12104D8B088
:10215200ADEF10F0AFEF10F0BDEF10F0000E226EF9
:10216200000E216E000E106E000E116E000E126E29
:10217200000E136E000E206E21C027F027A0C4EFC0
:1021820010F0C6EF10F0C9EF10F0128ECAEF10F087
:10219200129ED8902730136E80EF0FF01200000EBF
:1021A2004B6E000E4A6E000E4C6E5DEC18F0730E14
:1021B200026E000E036EE8EC18F0670E7318D8A4D6
:1021C200E5EF10F0E7EF10F009EF11F0740E0C6E6E
:1021D200000E0D6E2EEC17F07B0E0C6E000E0D6EC7
:1021E200CDEC14F0590E036E100E046E000E066E46
:1021F200090E056E0BEC18F02B0E036E100E046E1A
:10220200000E066E0B0E056E0BEC18F0D8EF10F0F8
:10221200610E7318D8A410EF11F012EF11F034EF21
:1022220011F07D0E0C6E000E0D6E2EEC17F0790E75
:102232000C6E000E0D6E42EC15F0630E036E100E66
:10224200046E000E066E090E056E0BEC18F0370ECA
:10225200036E100E046E000E066E0B0E056E0BEC76
:1022620018F0D8EF10F07A0E7318D8A43BEF11F0E3
:102272003DEF11F05FEF11F07B0E0C6E000E0D6E54
:1022820058EC14F0740E0C6E000E0D6E69EC17F023
:10229200430E036E100E046E000E066E0A0E056EDD
:1022A2000BEC18F0110E036E100E046E000E066E8B
:1022B2000C0E056E0BEC18F0D8EF10F0610E7318CF
:1022C200D8A466EF11F068EF11F06AEF11F0D8EFC1
:1022D20010F0720E7318D8A471EF11F073EF11F0B1
:1022E200BFEF11F07D0E0C6E000E0D6E69EC17F053
:1022F200790E0C6E000E0D6E58EC14F04E0E036E3D
:10230200100E046E000E066E0A0E056E0BEC18F02F
:102312001E0E036E100E046E000E066E0C0E056E7F
:102322000BEC18F0000E4B6E000E4A6ED8904A3439
:10233200D96E4B34DA6E800ED926000EDA22DF50C7
:10234200026E030E81EC18F0030E496E8A0E486E7F
:10235200560EE82EFED7482EFCD7492EFAD74A4A07
:102362004B2A4B5009E10A0E4A5CD8A0BBEF11F090
:10237200BDEF11F097EF11F0D8EF10F0D8EF10F099
:1023820007EF00F00A6E0A50D8B4CAEF11F0CCEF92
:1023920011F0EEEF11F005BED3EF11F0D1EF11F015
:1023A200EEEF11F002C006F003C007F004C008F01F
:1023B20005C009F0061E071E081E091E062A000E89
:1023C20007220822092206C00CF007C00DF008C03F
:1023D2000EF009C00FF0F6EF11F002C00CF003C0CE
:1023E2000DF004C00EF005C00FF0025003100410EF
:1023F2000510D8A4FFEF11F001EF12F00BEF12F06D
:10240200000E026E000E036E000E046E000E056ECC
:102412009CEF12F0960E0B6E15EF12F00B2AD8906D
:102422000F320E320D320C32000E0C14066E000EFC
:102432000D14076E000E0E14086EFE0E0F14096EB8
:102442000650071008100910D8A42AEF12F02CEF3A
:1024520012F00FEF12F03AEF12F00B2A010E0C26D7
:10246200000E0D220E220F22D8900F320E320D32A4
:102472000C32000E0C14066E000E0D14076E000EC8
:102482000E14086EFF0E0F14096E06500710081086
:102492000910D8A44FEF12F051EF12F02EEF12F004
:1024A20059EF12F00B06D8900C360D360E360F3659
:1024B2000EBE5EEF12F060EF12F068EF12F0020E45
:1024C2000B6066EF12F068EF12F053EF12F00BB0F0
:1024D2006DEF12F06FEF12F070EF12F00E9ED890C7
:1024E2000B320BC006F0076A086A096A06C009F0D7
:1024F200086A076A066A06500C1207500D12085045
:102502000E1209500F120A50D8B48AEF12F08CEF53
:1025120012F094EF12F005BE93EF12F091EF12F069
:1025220094EF12F00F8E0CC002F00DC003F00EC03B
:1025320004F00FC005F01200010E0A6E02500310E3
:10254200D8B4A6EF12F0A8EF12F0B9EF12F002C061
:10255200D9FF03C0DAFFDF30E832E832070B046E3E
:10256200070E0464B7EF12F0B9EF12F01CEF13F08C
:10257200000E0A6E3DEF13F002C0D9FF03C0DAFF6E
:10258200DF30E832E832070B046E010E056E042AD2
:10259200CDEF12F0D8900536042ECBEF12F0055095
:1025A200FF0A066E02C0D9FF03C0DAFFDF50070B35
:1025B200076E0750020DA80EF324D96E000EF42008
:1025C200DA6EDECF08F0DDCF09F008C0D9FF09C00E
:1025D200DAFF0650DF163DEF13F002C0D9FF03C049
:1025E200DAFFDF30E832E832070B046E010E056EC7
:1025F200042AFEEF12F0D8900536042EFCEF12F0FA
:1026020002C0D9FF03C0DAFFDF50070B066E065087
:10261200020DA80EF324D96E000EF420DA6EDECF7E
:1026220007F0DDCF08F007C0D9FF08C0DAFF055078
:10263200DF123DEF13F002C0D9FF03C0DAFFDFBCA7
:1026420025EF13F028EF13F0010E29EF13F0000E1F
:10265200046E056A0550000AD8B432EF13F0B9EFE0
:1026620012F00450000AD8B4BDEF12F0010AD8B437
:10267200EEEF12F0B9EF12F00A501200010E0B6EDB
:1026820002500310D8B448EF13F04AEF13F05BEF97
:1026920013F002C0D9FF03C0DAFFDF30E832E832BC
:1026A200070B056E070E056459EF13F05BEF13F08D
:1026B200BEEF13F0000E0B6ED3EF13F002C0D9FF82
:1026C20003C0DAFFDF30E832E832070B056E010E95
:1026D200066E052A6FEF13F0D8900636052E6DEFC1
:1026E20013F00650FF0A076E02C0D9FF03C0DAFFDB
:1026F200DF50070B086E0850020D9E0EF324D96EB0
:10270200000EF420DA6EDECF09F0DDCF0AF009C048
:10271200D9FF0AC0DAFF0750DF16D3EF13F002C069
:10272200D9FF03C0DAFFDF30E832E832070B056E6B
:10273200010E066E052AA0EF13F0D8900636052E7C
:102742009EEF13F002C0D9FF03C0DAFFDF50070B80
:10275200076E0750020D9E0EF324D96E000EF42070
:10276200DA6EDECF08F0DDCF09F008C0D9FF09C06C
:10277200DAFF0650DF12D3EF13F00450056E066A3B
:102782000650000AD8B4C8EF13F05BEF13F00550FF
:10279200000AD8B45FEF13F0010AD8B490EF13F037
:1027A2005BEF13F00B501200043405340B6E0B5028
:1027B200D8A4DEEF13F0E0EF13F0EAEF13F0000E0F
:1027C200026E000E036E000E046E000E056E57EFD1
:1027D20014F002C006F003C007F004C008F005C000
:1027E20009F0200EFAEF13F0D890093208320732BE
:1027F2000632E82EF5EF13F006500A6E048EFF0E35
:102802000216FF0E0316FF0E0416000E0516960E94
:102812000B5E0BBE11EF14F00FEF14F027EF14F064
:102822000B50800A970FD8B019EF14F01BEF14F079
:102832001DEF14F0E0EF13F0D890053204320332AA
:1028420002320B3E1DEF14F03FEF14F01F0E0B642B
:102852002DEF14F02FEF14F037EF14F0E0EF13F038
:10286200D89002360336043605360B060B50D8A430
:102872003DEF14F03FEF14F031EF14F00A50D8B4EA
:1028820045EF14F047EF14F04FEF14F0051E041E4D
:10289200031E026C000E03220422052202C002F073
:1028A20003C003F004C004F005C005F01200010EDD
:1028B2000F6E0C500D10D8A461EF14F063EF14F0FA
:1028C20067EF14F0000E0F6ECBEF14F06CC010F037
:1028D2000CC0D9FF0DC0DAFFDF500F0B0E6E105087
:1028E2000E18F80B0E18106E0CC0D9FF0DC0DAFFCF
:1028F200DF38070B0E6E0E460E460E4610500E18AF
:10290200C70B0E18106E109C0CC0D9FF0DC0DAFF59
:10291200DFAE02D0108E01D0109E6BC011F020EEFF
:1029220001F00C50D9260D50DA22DF500F0B0E6E3B
:1029320011500E18F80B0E18116E20EE01F00C500B
:10294200D9260D50DA22DF38070B0E6E0E460E46E0
:102952000E4611500E18C70B0E18116E119C20EE68
:1029620001F00C50D9260D50DA22DFAE02D0118EC2
:1029720001D0119E100E026E000E036E000E046E48
:102982003FEC13F0110E026E000E036E000E046E89
:102992003FEC13F00F501200010E0F6E0C500D1091
:1029A200D8A4D6EF14F0D8EF14F0DCEF14F0000E38
:1029B2000F6E40EF15F070C010F00CC0D9FF0DC0C3
:1029C200DAFFDF500F0B0E6E10500E18F80B0E18B8
:1029D200106E0CC0D9FF0DC0DAFFDF38070B0E6E88
:1029E2000E460E460E4610500E18C70B0E18106EED
:1029F200109C0CC0D9FF0DC0DAFFDFAE02D0108EE2
:102A020001D0109E6FC011F020EE01F00C50D926BB
:102A12000D50DA22DF500F0B0E6E11500E18F80B0C
:102A22000E18116E20EE01F00C50D9260D50DA224C
:102A3200DF38070B0E6E0E460E460E4611500E186C
:102A4200C70B0E18116E119C20EE01F00C50D92606
:102A52000D50DA22DFAE02D0118E01D0119E100E7F
:102A6200026E000E036E010E046E3FEC13F0110EA7
:102A7200026E000E036E000E046E3FEC13F00F5058
:102A82001200010E0F6E0C500D10D8A44BEF15F072
:102A92004DEF15F051EF15F0000E0F6EB5EF15F07A
:102AA2006EC010F00CC0D9FF0DC0DAFFDF500F0B63
:102AB2000E6E10500E18F80B0E18106E0CC0D9FFC7
:102AC2000DC0DAFFDF38070B0E6E0E460E460E46BD
:102AD20010500E18C70B0E18106E109C0CC0D9FFA8
:102AE2000DC0DAFFDFAE02D0108E01D0109E6DC095
:102AF20011F020EE01F00C50D9260D50DA22DF50F1
:102B02000F0B0E6E11500E18F80B0E18116E20EEF0
:102B120001F00C50D9260D50DA22DF38070B0E6E69
:102B22000E460E460E4611500E18C70B0E18116EA9
:102B3200119C20EE01F00C50D9260D50DA22DFAEA6
:102B420002D0118E01D0119E100E026E000E036E85
:102B5200000E046E3FEC13F0110E026E000E036EB7
:102B6200010E046E3FEC13F00F501200010E136EB3
:102B720010501110D8A4C0EF15F0C2EF15F0C6EF37
:102B820015F0000E136E26EF16F072C014F010C08E
:102B9200D9FF11C0DAFFDF500F0B126E145012185A
:102BA200F80B1218146E10C0D9FF11C0DAFFDF380B
:102BB200070B126E12461246124614501218C70B19
:102BC2001218146E149C10C0D9FF11C0DAFFDFAEC8
:102BD20002D0148E01D0149E71C015F020EE01F0C7
:102BE2001050D9261150DA22DF500F0B126E1550F9
:102BF2001218F80B1218156E20EE01F01050D9269B
:102C02001150DA22DF38070B126E124612461246B4
:102C120015501218C70B1218156E159C20EE01F0F4
:102C22001050D9261150DA22DFAE02D0158E01D013
:102C3200159E140E0C6E000E0D6EA4EC17F0150E00
:102C42000C6E000E0D6EA4EC17F01350120020EE65
:102C520006F00250D9260350DA22DFA033EF16F035
:102C620035EF16F095EF16F0AB8820EE0AF0025021
:102C7200D9260350DA22DECFC6F0DDCFC7F020EE30
:102C82000CF00250D9260350DA22DECFC4F0DDCF99
:102C9200C5F020EE0EF00250D9260350DA22DECF24
:102CA200C2F0DDCFC3F020EE06F00250D926035069
:102CB200DA22DFA25FEF16F061EF16F067EF16F08F
:102CC2009D8A9D8AF28EF28C75EF16F020EE06F048
:102CD2000250D9260350DA22DFB272EF16F074EFF7
:102CE20016F075EF16F09D9A20EE06F00250D926E6
:102CF2000350DA22DFA480EF16F082EF16F085EFA0
:102D020016F0AB8C95EF16F020EE06F00250D926A5
:102D12000350DA22DFB490EF16F092EF16F095EF3F
:102D220016F0AB9C95EF16F0120020EE04F0025064
:102D3200D9260350DA22DFA0A1EF16F0A3EF16F096
:102D4200EFEF16F0AC8A20EE08F00250D9260350BD
:102D5200DA22DECFC8F0DDCFC9F020EE04F0025057
:102D6200D9260350DA22DFA2B9EF16F0BBEF16F034
:102D7200C1EF16F09D889D88F28EF28CCFEF16F08F
:102D820020EE04F00250D9260350DA22DFB2CCEF53
:102D920016F0CEEF16F0CFEF16F09D9820EE04F06D
:102DA2000250D9260350DA22DFA4DAEF16F0DCEF64
:102DB20016F0DFEF16F0AC8CEFEF16F020EE04F019
:102DC2000250D9260350DA22DFB4EAEF16F0ECEF14
:102DD20016F0EFEF16F0AC9CEFEF16F01200010EBA
:102DE200136E10501110D8A4F9EF16F0FBEF16F085
:102DF200FFEF16F0000E136E2CEF17F06AC014F0FE
:102E020010C0D9FF11C0DAFFDF500F0B126E145041
:102E12001218F80B1218146E10C0D9FF11C0DAFF85
:102E2200DF38070B126E1246124612461450121861
:102E3200C70B1218146E149C10C0D9FF11C0DAFF10
:102E4200DFAE02D0148E01D0149E140E0C6E000E52
:102E52000D6EA4EC17F0135012000C500D10D8A4F4
:102E620035EF17F037EF17F039EF17F068EF17F07B
:102E720069C00FF00CC0D9FF0DC0DAFFDF500F0B95
:102E82000E6E0F500E18F80B0E180F6E0CC0D9FFF5
:102E92000DC0DAFFDF38070B0E6E0E460E460E46E9
:102EA2000F500E18C70B0E180F6E0F9C0CC0D9FFD7
:102EB2000DC0DAFFDFAE02D00F8E01D00F9E0F0ED3
:102EC200026E000E036E010E046E3FEC13F0120050
:102ED2000C500D10D8A470EF17F072EF17F074EFCA
:102EE20017F0A3EF17F068C00FF00CC0D9FF0DC0A8
:102EF200DAFFDF500F0B0E6E0F500E18F80B0E1884
:102F02000F6E0CC0D9FF0DC0DAFFDF38070B0E6E53
:102F12000E460E460E460F500E18C70B0E180F6EB9
:102F22000F9C0CC0D9FF0DC0DAFFDFAE02D00F8EAE
:102F320001D00F9E0F0E026E000E036E000E046E85
:102F42003FEC13F012000C500D10D8B4ABEF17F099
:102F5200ADEF17F0BEEF17F00CC0D9FF0DC0DAFFCE
:102F6200DF30E832E832070B0E6E070E0E64BCEF5C
:102F720017F0BEEF17F0C2EF17F0000E0F6ED8EF8A
:102F820017F00CC002F00DC003F09DEC12F00F6EB2
:102F92000CC002F00DC003F00CC0D9FF0DC0DAFF67
:102FA200000EDFBE010E046E3FEC13F00F6E0F50E9
:102FB20012008E0EF66E310EF76E000EF86E00EEF7
:102FC20080F010EE42F00900F5CFEEFFE550E1503F
:102FD200FAE1940EF66E320EF76E000EF86E00EE07
:102FE20075F010EE09F00900F5CFEEFFE550E15063
:102FF200FAE100EEC2F0240EEE6AE806FDE100EE10
:103002004DF0280EEE6AE806FDE17E907E92000108
:10301200D0EF10F0010E096E000E0B6E000E0A6E5C
:10302200000E0B6E000E0A6E29EF18F00A500324F0
:10303200076E0B500420086E07C0F6FF08C0F7FFAA
:10304200F86A0800F550F7EC18F0096E0A4A0B2AE4
:1030520005500A5C06500B58D8A032EF18F034EF36
:1030620018F017EF18F00950120045504610D8A476
:103072003DEF18F03FEF18F043EF18F0000E476EE7
:103082005BEF18F0AB9E948C948E45C039F046C02D
:103092003AF039EC08F045C002F046C003F096EC75
:1030A20016F045C002F046C003F028EC16F0AB8ED5
:1030B200010E476E47501200B20E456E000E466E6C
:1030C20036EC18F0800E026E030EA4EC18F0740EAB
:1030D200106E000E116EF0EC16F07D0E106E000EEA
:1030E200116EF0EC16F07B0E106E000E116EB7EC46
:1030F20015F0790E106E000E116EB7EC15F012007D
:10310200066E010E056E050E06648AEF18F08CEF4E
:1031120018F090EF18F0000E056EA2EF18F00650AE
:10312200020D9E0EF324D96E000EF420DA6EDECF6D
:1031320003F0DDCF04F003C0D9FF04C0DAFF02C000
:10314200DFFF05501200066E010E056E050E0664C5
:10315200ADEF18F0AFEF18F0B3EF18F0000E056EF8
:10316200C5EF18F00650020DA80EF324D96E000E1A
:10317200F420DA6EDECF03F0DDCF04F003C0D9FF16
:1031820004C0DAFF02C0DFFF05501200C000F900E0
:10319200A400B000990092008200F8008000900024
:1031A200800F810F820F830F840F890F8A0F8B0F7D
:1031B2008C0F8D0F920F930F940F950F960F802502
:1031C20000000100010000000000000000009EAAB3
:1031D200EDEF18F0EFEF18F0E8EF18F002C0D9FFAA
:1031E20003C0DAFFAECFDFFF000E1200026EACA208
:1031F200FDEF18F0FFEF18F0F8EF18F09D8802C00D
:10320200ADFF010E1200016EF2900150D8A40CEF36
:1032120019F00EEF19F010EF19F010EF19F012007B
:10322200016EF2900150D8A419EF19F01BEF19F0BA
:103232001DEF19F01DEF19F01200016EF29001500E
:10324200D8A426EF19F028EF19F02AEF19F02AEF87
:1032520019F01200016EF2900150D8A433EF19F068
:1032620035EF19F037EF19F037EF19F01200A1928C
:103272004E50B36E4DC0B2FF12009E905050CF6EB2
:103282004FC0CEFF1200F2945250D76E51C0D6FFFB
:0B32920012000101010140502030102B
:10329E009E9263C0CCFF12009E961200A196120061
:1032AE00F0921200F0901200F29212009D9812000D
:0E32BE00A19012009E9412009E9C120012001D
:020000040020DA
:08000000FFFFFFFFFFFFFFFF00
:020000040030CA
:0E000000FF02091EFF8181FF0FC00FE00F40BD
:00000001FF
