:0400000007EF00F016
:0A0008007E82ECED0CF0B3EF16F071
:10100000003738392F3435362A3132332D23303DED
:101010002B6D6F68616D65642068616D6564006744
:09102000617A617200256900008B
:10102A00000E3D6E000E3E6E000E3F6E000E406ECC
:10103A0045EF0AF0AC98AC94B89639C0D9FF3AC0DB
:10104A00DAFFDECF3BF0DDCF3CF03BC002F03CC024
:10105A0003F0046A056A000EACEC10F002C014F04A
:10106A0003C015F004C016F005C017F0000E106E8C
:10107A00240E116EF40E126E4A0E136EDFEC0EF091
:10108A0010C041F011C042F012C043F013C044F046
:10109A00000E146E000E156E800E166E420E176E3E
:1010AA0041C010F042C011F043C012F044C013F026
:1010BA00DFEC0EF010C029F011C02AF012C02BF09C
:1010CA0013C02CF0000E2D6E000E2E6E800E2F6EA9
:1010DA00BF0E306E8CEC0AF029C03DF02AC03EF0FB
:1010EA002BC03FF02CC040F070EF0AF0AC98AC84F3
:1010FA00B89639C0D9FF3AC0DAFFDECF3BF0DDCF70
:10110A003CF03BC002F03CC003F0046A056A000EE2
:10111A00ACEC10F002C014F003C015F004C016F0D5
:10112A0005C017F0000E106E240E116EF40E126E2A
:10113A004A0E136EDFEC0EF010C041F011C042F0FF
:10114A0012C043F013C044F0000E146E000E156E68
:10115A00800E166E410E176E41C010F042C011F09B
:10116A0043C012F044C013F0DFEC0EF010C029F0B7
:10117A0011C02AF012C02BF013C02CF0000E2D6EF5
:10118A00000E2E6E800E2F6EBF0E306E8CEC0AF0A3
:10119A0029C03DF02AC03EF02BC03FF02CC040F0E1
:1011AA0070EF0AF0AC98AC94B88639C0D9FF3AC04F
:1011BA00DAFFDECF3BF0DDCF3CF03BC002F03CC0B3
:1011CA0003F0046A056A000EACEC10F002C014F0D9
:1011DA0003C015F004C016F005C017F0000E106E1B
:1011EA00240E116EF40E126E4A0E136EDFEC0EF020
:1011FA0010C041F011C042F012C043F013C044F0D5
:10120A00000E146E000E156E800E166E410E176ECD
:10121A0041C010F042C011F043C012F044C013F0B4
:10122A00DFEC0EF010C029F011C02AF012C02BF02A
:10123A0013C02CF0000E2D6E000E2E6E800E2F6E37
:10124A00BF0E306E8CEC0AF029C03DF02AC03EF089
:10125A002BC03FF02CC040F070EF0AF0AC98AC8481
:10126A00B88639C0D9FF3AC0DAFFDECF3BF0DDCF0E
:10127A003CF03BC002F03CC003F0046A056A000E71
:10128A00ACEC10F002C014F003C015F004C016F064
:10129A0005C017F0000E106E240E116EF40E126EB9
:1012AA004A0E136EDFEC0EF010C041F011C042F08E
:1012BA0012C043F013C044F0000E146E000E156EF7
:1012CA00800E166E400E176E41C010F042C011F02B
:1012DA0043C012F044C013F0DFEC0EF010C029F046
:1012EA0011C02AF012C02BF013C02CF0000E2D6E84
:1012FA00000E2E6E800E2F6EBF0E306E8CEC0AF032
:10130A0029C03DF02AC03EF02BC03FF02CC040F06F
:10131A0070EF0AF0AC88B89639C0D9FF3AC0DAFF44
:10132A00DECF3BF0DDCF3CF03BC002F03CC003F027
:10133A00046A056A000EACEC10F002C014F003C097
:10134A0015F004C016F005C017F0000E106E240E3A
:10135A00116EF40E126E4A0E136EDFEC0EF010C010
:10136A0041F011C042F012C043F013C044F0000E25
:10137A00146E000E156E800E166E400E176E41C06A
:10138A0010F042C011F043C012F044C013F0DFEC79
:10139A000EF010C029F011C02AF012C02BF013C0B1
:1013AA002CF0000E2D6E000E2E6E800E2F6EBF0ECC
:1013BA00306E8CEC0AF029C03DF02AC03EF02BC0FA
:1013CA003FF02CC040F070EF0AF0AC88B88639C004
:1013DA00D9FF3AC0DAFFDECF3BF0DDCF3CF03BC0AD
:1013EA0002F03CC003F0046A056A000EACEC10F08F
:1013FA0002C014F003C015F004C016F005C017F0BF
:10140A00000E106E240E116EF40E126E4A0E136E3A
:10141A00DFEC0EF010C041F011C042F012C043F0F0
:10142A0013C044F0000E146E000E156E800E166E78
:10143A00400E176E41C010F042C011F043C012F0C6
:10144A0044C013F0DFEC0EF010C029F011C02AF0EE
:10145A0012C02BF013C02CF0000E2D6E000E2E6E53
:10146A00800E2F6EBF0E306E8CEC0AF029C03DF054
:10147A002AC03EF02BC03FF02CC040F070EF0AF0BB
:10148A0020EE02F03950D9263A50DA22DF503B6E6C
:10149A003C6A3C50000AD8B455EF0AF070EF0AF0E3
:1014AA003B50000AD8B41FEF08F0010AD8B47BEF0A
:1014BA0008F0030AD8B4D7EF08F0010AD8B433EF1A
:1014CA0009F0070AD8B48FEF09F0010AD8B4EAEF95
:1014DA0009F070EF0AF03DC002F03EC003F03FC0D1
:1014EA0004F040C005F017EC14F00250AF6E3DC096
:1014FA0002F03EC003F03FC004F040C005F017EC14
:10150A0014F003C002F0036A0250B06E12002C50AD
:10151A00800B356E2C502C24376E2BAE97EF0AF0C9
:10152A0099EF0AF09AEF0AF037803750D8B4A0EF53
:10153A000AF0A2EF0AF0B7EF0AF03728D8A4A8EF0A
:10154A000AF0AAEF0AF0B2EF0AF0000E296E000EB6
:10155A002A6E000E2B6E000E2C6E2B8E000E2C6E39
:10156A00BFEF0AF0000E296E000E2A6E000E2B6ED7
:10157A00000E2C6E3050800B366E35503618D8B4AB
:10158A00C9EF0AF0CBEF0AF0CCEF0AF0358C3050F5
:10159A003024366E2FAED4EF0AF0D6EF0AF0D7EF2A
:1015AA000AF036803650D8B4DDEF0AF0DFEF0AF0E1
:1015BA00F4EF0AF03628D8A4E5EF0AF0E7EF0AF0CC
:1015CA00EFEF0AF0000E2D6E000E2E6E000E2F6E3B
:1015DA00000E306E2F8E000E306EFCEF0AF0000EF9
:1015EA002D6E000E2E6E000E2F6E000E306E3750CE
:1015FA00365CD8B003EF0BF005EF0BF02CEF0BF0D5
:10160A0035AC0AEF0BF00CEF0BF00EEF0BF0800E7F
:10161A00351A37C038F036C037F038C036F029C02E
:10162A0038F02DC029F038C02DF02AC038F02EC06D
:10163A002AF038C02EF02BC038F02FC02BF038C05B
:10164A002FF02CC038F030C02CF038C030F0000E2B
:10165A00386E375036C031F0326A315E000E325A77
:10166A0032BE41EF0BF0325009E11A0E315CD8A0BC
:10167A0041EF0BF043EF0BF07AEF0BF029502A10F1
:10168A002B102C10D8A44CEF0BF04FEF0BF0010EDF
:10169A0050EF0BF0000E386E000E296E000E2A6E07
:1016AA00000E2B6E000E2C6E36C037F083EF0BF057
:1016BA0038A062EF0BF064EF0BF06AEF0BF0D890F2
:1016CA0038300109386E6CEF0BF0D890383229A007
:1016DA0071EF0BF073EF0BF074EF0BF0388E2C34C4
:1016EA002C322B322A322932372A3650375CD8A08C
:1016FA0081EF0BF083EF0BF05DEF0BF035BC88EF59
:10170A000BF08AEF0BF0CAEF0BF03750D8A490EF2A
:10171A000BF092EF0BF09CEF0BF0000E296E000E0F
:10172A002A6E000E2B6E000E2C6EEBEF0CF02D5075
:10173A0029262E502A222F502B2230502C222CA020
:10174A00A9EF0BF0ABEF0BF057EF0CF038A0B0EFAE
:10175A000BF0B2EF0BF0B8EF0BF0D890383001096C
:10176A00386EBAEF0BF0D890383229A0BFEF0BF0E1
:10177A00C1EF0BF0C2EF0BF0388E2C342C322B3227
:10178A002A322932372A57EF0CF02D50295C2E5075
:10179A002A582F502B582C50800A316E3050800A0C
:1017AA003158D8B0DBEF0BF0DDEF0BF008EF0CF09F
:1017BA0029502D5C316E2A502E58326E2B502F58DC
:1017CA00336E2C503058346EFF0E3124296EFF0EC2
:1017DA0032202A6EFF0E33202B6EFF0E34202C6E21
:1017EA00800E351A386C3850D8A4FEEF0BF000EF93
:1017FA000CF010EF0CF0010E2926000E2A222B22E3
:10180A002C2210EF0CF02D50295E2E502A5A2F5000
:10181A002B5A30502C5A29502A102B102C10D8A48D
:10182A0019EF0CF01BEF0CF050EF0CF03850D8A465
:10183A0021EF0CF023EF0CF050EF0CF0000E296EA4
:10184A00000E2A6E000E2B6E000E2C6EEBEF0CF0C3
:10185A00D89029362A362B362C3638AE37EF0CF08C
:10186A0039EF0CF03AEF0CF0298038A03FEF0CF07A
:10187A0041EF0CF045EF0CF0D880383647EF0CF00A
:10188A00D89038363750D8B44DEF0CF04FEF0CF0F3
:10189A0050EF0CF037062BAE55EF0CF057EF0CF06B
:1018AA002DEF0CF0000E366E38AE5EEF0CF060EFE6
:1018BA000CF078EF0CF038C031F07F0E3116D8B446
:1018CA0069EF0CF06BEF0CF06FEF0CF0010E366E57
:1018DA0078EF0CF029A074EF0CF076EF0CF078EFAB
:1018EA000CF06BEF0CF03650D8B47EEF0CF080EFB2
:1018FA000CF0ABEF0CF0010E2926000E2A222B2247
:10190A002C222CA08BEF0CF08DEF0CF0ABEF0CF02F
:10191A0029C031F02AC032F02BC033F02CC034F089
:10192A003434343233323232313231C029F032C0B7
:10193A002AF033C02BF034C02CF03728D8B4A8EFE3
:10194A000CF0AAEF0CF0ABEF0CF0372A3728D8B41A
:10195A00B1EF0CF0B3EF0CF0BBEF0CF03750D8A49A
:10196A00B9EF0CF0BBEF0CF0CDEF0CF0000E296EC6
:10197A00000E2A6E000E2B6E000E2C6E3750D8A465
:10198A00C9EF0CF0CBEF0CF0CDEF0CF0000E356E7A
:10199A0037A0D2EF0CF0D4EF0CF0D7EF0CF02B8E6F
:1019AA00D8EF0CF02B9ED89037302C6E35AEE0EF86
:1019BA000CF0E2EF0CF0E3EF0CF02C8E29C029F0CA
:1019CA002AC02AF02BC02BF02CC02CF012000600E3
:1019DA00F2A8F2EF0CF0F4EF0CF0FDEF0CF0F2A22B
:1019EA00F9EF0CF0FBEF0CF0FDEF0CF005EC18F042
:1019FA00F0A602EF0DF004EF0DF00DEF0DF0F0A0E0
:101A0A0009EF0DF00BEF0DF00DEF0DF003EC18F0F0
:101A1A00F0A812EF0DF014EF0DF01DEF0DF0F0A28B
:101A2A0019EF0DF01BEF0DF01DEF0DF001EC18F0A2
:101A3A00F2A622EF0DF024EF0DF03FEF0DF0F2A029
:101A4A0029EF0DF02BEF0DF03FEF0DF081A830EFED
:101A5A000DF032EF0DF03FEF0DF07D04D8A438EF12
:101A6A000DF03AEF0DF03FEF0DF0000E7D6E000E17
:101A7A00D8EC17F0F2A644EF0DF046EF0DF061EF47
:101A8A000DF0F2A04BEF0DF04DEF0DF061EF0DF000
:101A9A0081B852EF0DF054EF0DF061EF0DF07D506B
:101AAA00D8A45AEF0DF05CEF0DF061EF0DF0010EC6
:101ABA007D6E010ED8EC17F0F2A666EF0DF068EF16
:101ACA000DF083EF0DF0F2A06DEF0DF06FEF0DF05A
:101ADA0083EF0DF081AA74EF0DF076EF0DF083EF2E
:101AEA000DF07C04D8A47CEF0DF07EEF0DF083EFAF
:101AFA000DF0000E7C6E000ECBEC17F0F2A688EF0C
:101B0A000DF08AEF0DF0A5EF0DF0F2A08FEF0DF0BA
:101B1A0091EF0DF0A5EF0DF081BA96EF0DF098EF69
:101B2A000DF0A5EF0DF07C50D8A49EEF0DF0A0EFBC
:101B3A000DF0A5EF0DF0010E7C6E010ECBEC17F047
:101B4A00F2A6AAEF0DF0ACEF0DF0C7EF0DF0F2A080
:101B5A00B1EF0DF0B3EF0DF0C7EF0DF081ACB8EFB8
:101B6A000DF0BAEF0DF0C7EF0DF07B04D8A4C0EF6B
:101B7A000DF0C2EF0DF0C7EF0DF0000E7B6E000EF8
:101B8A00BEEC17F0F2A6CCEF0DF0CEEF0DF0E9EFB8
:101B9A000DF0F2A0D3EF0DF0D5EF0DF0E9EF0DF057
:101BAA0081BCDAEF0DF0DCEF0DF0E9EF0DF07B50C0
:101BBA00D8A4E2EF0DF0E4EF0DF0E9EF0DF0010E1D
:101BCA007B6E010EBEEC17F0F2A6EEEF0DF0F0EF11
:101BDA000DF00BEF0EF0F2A0F5EF0DF0F7EF0DF0B0
:101BEA000BEF0EF081AEFCEF0DF0FEEF0DF00BEFF8
:101BFA000EF07A04D8A404EF0EF006EF0EF00BEF05
:101C0A000EF0000E7A6E000EB1EC17F0F2A610EF8D
:101C1A000EF012EF0EF02DEF0EF0F2A017EF0EF00D
:101C2A0019EF0EF02DEF0EF081BE1EEF0EF020EF31
:101C3A000EF02DEF0EF07A50D8A426EF0EF028EF12
:101C4A000EF02DEF0EF0010E7A6E010EB1EC17F0C8
:101C5A009DAC32EF0EF034EF0EF03DEF0EF09EAC7D
:101C6A0039EF0EF03BEF0EF03DEF0EF00DEC18F0F1
:101C7A00F2AA42EF0EF044EF0EF04DEF0EF0F2A48E
:101C8A0049EF0EF04BEF0EF04DEF0EF0F1EC17F0BE
:101C9A009DA052EF0EF054EF0EF05DEF0EF09EA0F5
:101CAA0059EF0EF05BEF0EF05DEF0EF0EBEC17F074
:101CBA009DA262EF0EF064EF0EF06DEF0EF09EA2A1
:101CCA0069EF0EF06BEF0EF06DEF0EF0F7EC17F018
:101CDA00A0A272EF0EF074EF0EF07DEF0EF0A1A24B
:101CEA0079EF0EF07BEF0EF07DEF0EF0E5EC17F0DA
:101CFA009DA482EF0EF084EF0EF08DEF0EF09EA4FD
:101D0A0089EF0EF08BEF0EF08DEF0EF00BEC18F062
:101D1A00A0A092EF0EF094EF0EF09DEF0EF0A1A0AE
:101D2A0099EF0EF09BEF0EF09DEF0EF009EC18F014
:101D3A009DA8A2EF0EF0A4EF0EF0ADEF0EF09EA854
:101D4A00A9EF0EF0ABEF0EF0ADEF0EF007EC18F0C6
:101D5A009DAAB2EF0EF0B4EF0EF0BDEF0EF09EAA00
:101D6A00B9EF0EF0BBEF0EF0BDEF0EF00FEC18F06E
:101D7A009DA6C2EF0EF0C4EF0EF0CDEF0EF09EA6B8
:101D8A00C9EF0EF0CBEF0EF0CDEF0EF0FDEC17F031
:101D9A00A0A6D2EF0EF0D4EF0EF0DDEF0EF0A1A662
:101DAA00D9EF0EF0DBEF0EF0DDEF0EF0FFEC17F0DF
:101DBA007E9211001350800B206E13501324276E4D
:101DCA0012AEEAEF0EF0ECEF0EF0EDEF0EF0278018
:101DDA002750D8B4F3EF0EF0F5EF0EF00AEF0FF03C
:101DEA002728D8A4FBEF0EF0FDEF0EF005EF0FF059
:101DFA00000E106E000E116E000E126E000E136EA3
:101E0A00128E000E136E12EF0FF0000E106E000EFF
:101E1A00116E000E126E000E136E1750800B201AF0
:101E2A0017501724286E16AE1DEF0FF01FEF0FF094
:101E3A0020EF0FF028802850D8B426EF0FF028EFB3
:101E4A000FF03DEF0FF02828D8A42EEF0FF030EF57
:101E5A000FF038EF0FF0000E146E000E156E000E24
:101E6A00166E000E176E168E000E176E45EF0FF0E7
:101E7A00000E146E000E156E000E166E000E176E12
:101E8A001450151016101710D8A44EEF0FF050EF7B
:101E9A000FF068EF0FF0000E106E000E116E000EBC
:101EAA00126E000E136E800E12127F0E1312205045
:101EBA00131210C010F011C011F012C012F013C0AA
:101ECA0013F0ABEF10F02750D8A46EEF0FF070EFBD
:101EDA000FF07AEF0FF0000E106E000E116E000E6A
:101EEA00126E000E136EABEF10F0285027C018F0D8
:101EFA00196A185E000E195A7F0E1824216E000EF8
:101F0A001920226E10C01CF011C01DF012C01EF064
:101F1A0013C01FF0000E106E000E116E000E126E2E
:101F2A00000E136E000E236E000E246E000E256E38
:101F3A00000E266E000E286EDBEF0FF02850D8B484
:101F4A00A9EF0FF0ABEF0FF0C2EF0FF0D8901C36ED
:101F5A001D361E361F36D8901036113612361336F5
:101F6A0026AEBAEF0FF0BCEF0FF0BDEF0FF0108006
:101F7A00D890233624362536263614501C5C155044
:101F8A001D5816501E5817501F58D8A0CFEF0FF0E3
:101F9A00D1EF0FF0DAEF0FF0268C14501C5E1550BB
:101FAA001D5A16501E5A17501F5A282A190E2864ED
:101FBA00E1EF0FF0E3EF0FF0A3EF0FF01C501D104D
:101FCA001E101F10D8B4ECEF0FF0EEEF0FF006EF73
:101FDA0010F0238006EF10F0D89010361136123622
:101FEA00133626AEFBEF0FF0FDEF0FF0FEEF0FF00A
:101FFA001080D89023362436253626362106D8A0D6
:10200A00220612AE0BEF10F00DEF10F0F1EF0FF009
:10201A00000E286E26AE14EF10F016EF10F03AEF0D
:10202A0010F0FF0E2314186EFF0E2414196EFF0E03
:10203A0025141A6E7F0E26141B6E185019101A10CA
:10204A001B10D8B42BEF10F02DEF10F031EF10F079
:10205A00010E286E3AEF10F010A036EF10F038EFAC
:10206A0010F03AEF10F02DEF10F02850D8B440EFEE
:10207A0010F042EF10F066EF10F0010E1026000E7D
:10208A0011221222132213A04DEF10F04FEF10F07D
:10209A0066EF10F010C018F011C019F012C01AF053
:1020AA0013C01BF01B341B321A321932183218C0F3
:1020BA0010F019C011F01AC012F01BC013F0214A17
:1020CA00222A22BE71EF10F0225008E12128D8A05E
:1020DA0071EF10F073EF10F07EEF10F0000E226E29
:1020EA002168000E106E000E116E000E126E000EA8
:1020FA00136E22BE8BEF10F0225006E12104D8B0F5
:10210A0089EF10F08BEF10F099EF10F0000E226EAD
:10211A00000E216E000E106E000E116E000E126E71
:10212A00000E136E000E206E21C027F027A0A0EF2C
:10213A0010F0A2EF10F0A5EF10F0128EA6EF10F03B
:10214A00129ED8902730136E5CEF0FF012000A6EC1
:10215A000A50D8B4B3EF10F0B5EF10F0D7EF10F083
:10216A0005BEBCEF10F0BAEF10F0D7EF10F002C0C6
:10217A0006F003C007F004C008F005C009F0061E07
:10218A00071E081E091E062A000E07220822092217
:10219A0006C00CF007C00DF008C00EF009C00FF021
:1021AA00DFEF10F002C00CF003C00DF004C00EF017
:1021BA0005C00FF00250031004100510D8A4E8EF70
:1021CA0010F0EAEF10F0F4EF10F0000E026E000EBD
:1021DA00036E000E046E000E056E85EF11F0960E6A
:1021EA000B6EFEEF10F00B2AD8900F320E320D3222
:1021FA000C32000E0C14066E000E0D14076E000E43
:10220A000E14086EFE0E0F14096E06500710081001
:10221A000910D8A413EF11F015EF11F0F8EF10F030
:10222A0023EF11F00B2A010E0C26000E0D220E22AE
:10223A000F22D8900F320E320D320C32000E0C14CF
:10224A00066E000E0D14076E000E0E14086EFF0EB9
:10225A000F14096E0650071008100910D8A438EF99
:10226A0011F03AEF11F017EF11F042EF11F00B06EF
:10227A00D8900C360D360E360F360EBE47EF11F0DB
:10228A0049EF11F051EF11F0020E0B604FEF11F010
:10229A0051EF11F03CEF11F00BB056EF11F058EF7F
:1022AA0011F059EF11F00E9ED8900B320BC006F0C8
:1022BA00076A086A096A06C009F0086A076A066AAC
:1022CA0006500C1207500D1208500E1209500F1228
:1022DA000A50D8B473EF11F075EF11F07DEF11F0D9
:1022EA0005BE7CEF11F07AEF11F07DEF11F00F8E41
:1022FA000CC002F00DC003F00EC004F00FC005F0D0
:10230A001200000E4C6E000E4B6E000E4A6E92ECDE
:10231A0017F0C20E1F6E000E206E010E216E010E06
:10232A00226E110E236E100E246E46EC16F00B0E62
:10233A00496E260E486E5E0EE82EFED7482EFCD752
:10234A00492EFAD7000E4C6E000E4B6ED8904B34C5
:10235A00D96E4C34DA6E800ED926000EDA22DF509E
:10236A00026E030E31EC17F0030E496E8A0E486EA8
:10237A00560EE82EFED7482EFCD7492EFAD74B4ADE
:10238A004C2A4C5009E10A0E4B5CD8A0CFEF11F051
:10239A00D1EF11F0ABEF11F0670EA4EC17F00B0EB2
:1023AA00496E260E486E5E0EE82EFED7482EFCD7E2
:1023BA00492EFAD7610EA4EC17F00B0E496E260EC1
:1023CA00486E5E0EE82EFED7482EFCD7492EFAD765
:1023DA007A0EA4EC17F00B0E496E260E486E5E0EAE
:1023EA00E82EFED7482EFCD7492EFAD7610EA4EC68
:1023FA0017F00B0E496E260E486E5E0EE82EFED7BB
:10240A00482EFCD7492EFAD7720EA4EC17F00B0E01
:10241A00496E260E486E5E0EE82EFED7482EFCD771
:10242A00492EFAD7C20E1F6E000E206E020E216EC2
:10243A00050E226E1F0E236E100E246E46EC16F049
:10244A000B0E496E260E486E5E0EE82EFED7482EFB
:10245A00FCD7492EFAD7C20E0F6E000E106E010E6F
:10246A00116EFEEC15F0C20E1F6E000E206E010EEC
:10247A00216E010E226E110E236E100E246E46EC92
:10248A0016F0A7EF11F007EF00F0010E0A6E0250E6
:10249A000310D8B453EF12F055EF12F066EF12F0B2
:1024AA0002C0D9FF03C0DAFFDF30E832E832070B97
:1024BA00046E070E046464EF12F066EF12F0C9EFBF
:1024CA0012F0000E0A6EEAEF12F002C0D9FF03C042
:1024DA00DAFFDF30E832E832070B046E010E056ED0
:1024EA00042A7AEF12F0D8900536042E78EF12F00B
:1024FA000550FF0A066E02C0D9FF03C0DAFFDF509B
:10250A00070B076E0750020DA80EF324D96E000EB2
:10251A00F420DA6EDECF08F0DDCF09F008C0D9FF6B
:10252A0009C0DAFF0650DF16EAEF12F002C0D9FF3F
:10253A0003C0DAFFDF30E832E832070B046E010E1F
:10254A00056E042AABEF12F0D8900536042EA9EFD7
:10255A0012F002C0D9FF03C0DAFFDF50070B066E84
:10256A000650020DA80EF324D96E000EF420DA6E7E
:10257A00DECF07F0DDCF08F007C0D9FF08C0DAFFC9
:10258A000550DF12EAEF12F002C0D9FF03C0DAFFEA
:10259A00DFBCD2EF12F0D5EF12F0010ED6EF12F037
:1025AA00000E046E056A0550000AD8B4DFEF12F077
:1025BA0066EF12F00450000AD8B46AEF12F0010A6A
:1025CA00D8B49BEF12F066EF12F00A501200010E17
:1025DA000B6E02500310D8B4F5EF12F0F7EF12F0B9
:1025EA0008EF13F002C0D9FF03C0DAFFDF30E83288
:1025FA00E832070B056E070E056406EF13F008EFC5
:10260A0013F06BEF13F0000E0B6E80EF13F002C0A5
:10261A00D9FF03C0DAFFDF30E832E832070B056E74
:10262A00010E066E052A1CEF13F0D8900636052E09
:10263A001AEF13F00650FF0A076E02C0D9FF03C053
:10264A00DAFFDF50070B086E0850020D9E0EF324C6
:10265A00D96E000EF420DA6EDECF09F0DDCF0AF073
:10266A0009C0D9FF0AC0DAFF0750DF1680EF13F05E
:10267A0002C0D9FF03C0DAFFDF30E832E832070BC5
:10268A00056E010E066E052A4DEF13F0D890063638
:10269A00052E4BEF13F002C0D9FF03C0DAFFDF505B
:1026AA00070B076E0750020D9E0EF324D96E000E1B
:1026BA00F420DA6EDECF08F0DDCF09F008C0D9FFCA
:1026CA0009C0DAFF0650DF1280EF13F00450056EDE
:1026DA00066A0650000AD8B475EF13F008EF13F033
:1026EA000550000AD8B40CEF13F0010AD8B43DEF34
:1026FA0013F008EF13F00B501200000E1C6E185066
:10270A001910D8A48BEF13F08DEF13F091EF13F09B
:10271A00000E1D6E15EF14F018C00CF019C00DF064
:10272A007DEC16F01D6E010E18240C6E000E192099
:10273A000D6E7DEC16F01D6E000E1C6E1C501824DA
:10274A001A6E000E19201B6E020E1A240C6E000E51
:10275A001B200D6E7DEC16F01C2A070E1C64B8EFC8
:10276A0013F0BAEF13F0A3EF13F0820E1A6EDE0E17
:10277A00E82EFED71A2EFCD718C00FF019C010F099
:10278A00380E116EFEEC15F0210E1A6E760EE82E3A
:10279A00FED71A2EFCD700D018C00FF019C010F0BF
:1027AA00380E116EFEEC15F0FA0EE82EFED718C0A0
:1027BA000FF019C010F0380E116EFEEC15F018C0AB
:1027CA000FF019C010F0010E116EFEEC15F018C0D2
:1027DA000FF019C010F0020E116EFEEC15F018C0C1
:1027EA000FF019C010F0060E116EFEEC15F018C0AD
:1027FA000FF019C010F00C0E116EFEEC15F018C097
:10280A000FF019C010F0380E116EFEEC15F018C05A
:10281A000FF019C010F0800E116EFEEC15F01D6E4F
:10282A001D501200043405340B6E0B50D8A420EF4F
:10283A0014F022EF14F02CEF14F0000E026E000ECA
:10284A00036E000E046E000E056E99EF14F002C0BE
:10285A0006F003C007F004C008F005C009F0200E16
:10286A003CEF14F0D8900932083207320632E82ECB
:10287A0037EF14F006500A6E048EFF0E0216FF0E92
:10288A000316FF0E0416000E0516960E0B5E0BBEFF
:10289A0053EF14F051EF14F069EF14F00B50800A63
:1028AA00970FD8B05BEF14F05DEF14F05FEF14F000
:1028BA0022EF14F0D89005320432033202320B3E72
:1028CA005FEF14F081EF14F01F0E0B646FEF14F03A
:1028DA0071EF14F079EF14F022EF14F0D890023669
:1028EA000336043605360B060B50D8A47FEF14F0D6
:1028FA0081EF14F073EF14F00A50D8B487EF14F094
:10290A0089EF14F091EF14F0051E041E031E026CE9
:10291A00000E03220422052202C002F003C003F0C3
:10292A0004C004F005C005F0120020EE06F00250C3
:10293A00D9260350DA22DFA0A5EF14F0A7EF14F08E
:10294A0007EF15F0AB8820EE0AF00250D9260350A3
:10295A00DA22DECFD0F0DDCFD1F020EE0CF002503B
:10296A00D9260350DA22DECFCEF0DDCFCFF020EE2B
:10297A000EF00250D9260350DA22DECFCCF0DDCF9A
:10298A00CDF020EE06F00250D9260350DA22DFA25B
:10299A00D1EF14F0D3EF14F0D9EF14F09D8A9D8A89
:1029AA00F28EF28CE7EF14F020EE06F00250D926F0
:1029BA000350DA22DFB2E4EF14F0E6EF14F0E7EFA7
:1029CA0014F09D9A20EE06F00250D9260350DA221E
:1029DA00DFA4F2EF14F0F4EF14F0F7EF14F0AB8C7D
:1029EA0007EF15F020EE06F00250D9260350DA223E
:1029FA00DFB402EF15F004EF15F007EF15F0AB9C0A
:102A0A0007EF15F0120020EE04F00250D926035009
:102A1A00DA22DFA013EF15F015EF15F061EF15F0CC
:102A2A00AC8A20EE08F00250D9260350DA22DECF13
:102A3A00D2F0DDCFD3F020EE04F00250D9260350B5
:102A4A00DA22DFA22BEF15F02DEF15F033EF15F098
:102A5A009D889D88F28EF28C41EF15F020EE04F0ED
:102A6A000250D9260350DA22DFB23EEF15F040EFCA
:102A7A0015F041EF15F09D9820EE04F00250D9268A
:102A8A000350DA22DFA44CEF15F04EEF15F051EFA8
:102A9A0015F0AC8C61EF15F020EE04F00250D92647
:102AAA000350DA22DFB45CEF15F05EEF15F061EF48
:102ABA0015F0AC9C61EF15F01200010E1E6E1B069C
:102ACA0097EF15F018C00FF019C010F01B50800FC7
:102ADA00116EFEEC15F01E6EB4EF15F018C00FF073
:102AEA0019C010F01B50C00F116EFEEC15F01E6ECF
:102AFA00B4EF15F018C00FF019C010F01B50900F6A
:102B0A00116EFEEC15F01E6EB4EF15F018C00FF042
:102B1A0019C010F01B50D00F116EFEEC15F01E6E8E
:102B2A00B4EF15F01A501C6E1D6A1D50000AD8B475
:102B3A00A1EF15F0B4EF15F01C50010AD8B467EFF5
:102B4A0015F0030AD8B473EF15F0010AD8B47FEF71
:102B5A0015F0070AD8B48BEF15F0B4EF15F01E5034
:102B6A001200000E176E0F501010D8A4BFEF15F008
:102B7A00C1EF15F0C5EF15F0000E166EFCEF15F05B
:102B8A000FC002F010C003F0010E046EECEC12F05C
:102B9A00000E176E17500F24126E000E1020136EBF
:102BAA00020E1224026E000E1320036E17C014F0D8
:102BBA0011C015F0142AE4EF15F0D8901532142E2E
:102BCA00E2EF15F01550010B046EECEC12F0172A27
:102BDA00070E1764F3EF15F0F5EF15F0CFEF15F0C8
:102BEA000FC00CF010C00DF077EC17F0166E1650EF
:102BFA001200000E176E0F501010D8A407EF16F02F
:102C0A0009EF16F00DEF16F0000E166E44EF16F0EF
:102C1A000FC002F010C003F0000E046EECEC12F0CC
:102C2A00000E176E17500F24126E000E1020136E2E
:102C3A00020E1224026E000E1320036E17C014F047
:102C4A0011C015F0142A2CEF16F0D8901532142E54
:102C5A002AEF16F01550010B046EECEC12F0172A4D
:102C6A00070E17643BEF16F03DEF16F017EF16F05C
:102C7A000FC00CF010C00DF077EC17F0166E16505E
:102C8A0012001F502010D8A44DEF16F04FEF16F087
:102C9A0051EF16F07CEF16F01FC018F020C019F0A3
:102CAA0021C01AF022C01BF062EC15F06DEF16F08D
:102CBA001FC00FF020C010F023C0F6FF24C0F7FF9A
:102CCA00F86A0800F5CF11F0B6EC15F0234A242A69
:102CDA0023C0F6FF24C0F7FFF86A0800F550000980
:102CEA00D8A47AEF16F07CEF16F05DEF16F012001A
:102CFA000C500D10D8B484EF16F086EF16F097EF4B
:102D0A0016F00CC0D9FF0DC0DAFFDF30E832E83226
:102D1A00070B0E6E070E0E6495EF16F097EF16F07E
:102D2A009BEF16F0000E0F6EB1EF16F00CC002F01A
:102D3A000DC003F04AEC12F00F6E0CC002F00DC089
:102D4A0003F00CC0D9FF0DC0DAFF000EDFBE010E82
:102D5A00046EECEC12F00F6E0F501200160EF66EA7
:102D6A002E0EF76E000EF86E00EE80F010EE4CF0AC
:102D7A000900F5CFEEFFE550E150FAE1F60EF66EE6
:102D8A002F0EF76E000EF86E00EE7AF010EE04F0D9
:102D9A000900F5CFEEFFE550E150FAE100EECCF084
:102DAA001E0EEE6AE806FDE100EE4DF02D0EEE6A0B
:102DBA00E806FDE17E907E92000186EF11F0455013
:102DCA004610D8A4EBEF16F0EDEF16F0F1EF16F07F
:102DDA00000E476E09EF17F0AB9E948C948E45C097
:102DEA0039F046C03AF015EC08F045C002F046C08A
:102DFA0003F008EC15F045C002F046C003F09AEC67
:102E0A0014F0AB8E010E476E47501200C000F90055
:102E1A00A400B000990092008200F800800090009F
:102E2A00800F810F820F830F840F890F8A0F8B0FF8
:102E3A008C0F8D0F920F930F940F950F960F80257D
:102E4A00000001000100000000000000000000086E
:102E5A000109111921293139066E010E056E050E77
:102E6A0006643AEF17F03CEF17F040EF17F0000E48
:102E7A00056E52EF17F00650020D9E0EF324D96E1E
:102E8A00000EF420DA6EDECF03F0DDCF04F003C0CB
:102E9A00D9FF04C0DAFF02C0DFFF05501200066E38
:102EAA00010E056E050E06645DEF17F05FEF17F071
:102EBA0063EF17F0000E056E75EF17F00650020D5E
:102ECA00A80EF324D96E000EF420DA6EDECF03F0DA
:102EDA00DDCF04F003C0D9FF04C0DAFF02C0DFFF70
:102EEA0005501200010E0C24026E000E0D20036E16
:102EFA00010E046EECEC12F0080EE82EFED700F07C
:102F0A00010E0C24026E000E0D20036E000E046EDC
:102F1A00ECEC12F00E6E0E501200B20E456E000E60
:102F2A00466EE4EC16F0C20E186E000E196E82ECB4
:102F3A0013F0800E026E030E54EC17F01200026EAC
:102F4A00ACA2AAEF17F0ACEF17F0A5EF17F09D8827
:102F5A0002C0ADFF010E1200016EF2900150D8A41A
:102F6A00B9EF17F0BBEF17F0BDEF17F0BDEF17F091
:102F7A001200016EF2900150D8A4C6EF17F0C8EF04
:102F8A0017F0CAEF17F0CAEF17F01200016EF290AD
:102F9A000150D8A4D3EF17F0D5EF17F0D7EF17F0F9
:102FAA00D7EF17F01200016EF2900150D8A4E0EFAB
:102FBA0017F0E2EF17F0E4EF17F0E4EF17F0120062
:102FCA00A1924E50B36E4DC0B2FF12009E90505067
:102FDA00CF6E4FC0CEFF1200F2945250D76E51C03E
:102FEA00D6FF12009E926AC0CCFF120001010101B5
:102FFA009E961200A1961200F0921200F090120012
:10300A00F29212009D981200A19012009E94120052
:06301A009E9C1200120052
:020000040020DA
:08000000FFFFFFFFFFFFFFFF00
:020000040030CA
:0E000000FF02091EFF8181FF0FC00FE00F40BD
:00000001FF
