:0400000007EF00F016
:0A0008007E8213ED0DF0E7EF17F014
:10100000003738392F3435362A3132332D23303DED
:101010002B6D6F746F7231206F6666200D006D6FDF
:10102000746F7232206F6666200D006D6F746F7280
:1010300031206F6E200D006D6F746F7232206F6EF5
:10104000200D006C656431206F6666200D006C65B4
:101050006432206F6666200D006C656431206F6E0F
:10106000200D006C656432206F6E200D00375345F3
:1010700047200D0025690000000E3D6E000E3E6EFB
:10108000000E3F6E000E406E6CEF0AF0AC98AC9410
:10109000B89639C0D9FF3AC0DAFFDECF3BF0DDCFDA
:1010A0003CF03BC002F03CC003F0046A056A000E4D
:1010B000D0EC11F002C014F003C015F004C016F01B
:1010C00005C017F0000E106E240E116EF40E126E95
:1010D0004A0E136E06EC0FF010C041F011C042F042
:1010E00012C043F013C044F0000E146E000E156ED3
:1010F000800E166E420E176E41C010F042C011F005
:1011000043C012F044C013F006EC0FF010C029F0F9
:1011100011C02AF012C02BF013C02CF0000E2D6E5F
:10112000000E2E6E800E2F6EBF0E306EB3EC0AF0E6
:1011300029C03DF02AC03EF02BC03FF02CC040F04B
:1011400097EF0AF0AC98AC84B89639C0D9FF3AC092
:10115000DAFFDECF3BF0DDCF3CF03BC002F03CC01D
:1011600003F0046A056A000ED0EC11F002C014F01E
:1011700003C015F004C016F005C017F0000E106E85
:10118000240E116EF40E126E4A0E136E06EC0FF062
:1011900010C041F011C042F012C043F013C044F03F
:1011A000000E146E000E156E800E166E410E176E38
:1011B00041C010F042C011F043C012F044C013F01F
:1011C00006EC0FF010C029F011C02AF012C02BF06D
:1011D00013C02CF0000E2D6E000E2E6E800E2F6EA2
:1011E000BF0E306EB3EC0AF029C03DF02AC03EF0CD
:1011F0002BC03FF02CC040F097EF0AF0AC98AC94B5
:10120000B88639C0D9FF3AC0DAFFDECF3BF0DDCF78
:101210003CF03BC002F03CC003F0046A056A000EDB
:10122000D0EC11F002C014F003C015F004C016F0A9
:1012300005C017F0000E106E240E116EF40E126E23
:101240004A0E136E06EC0FF010C041F011C042F0D0
:1012500012C043F013C044F0000E146E000E156E61
:10126000800E166E410E176E41C010F042C011F094
:1012700043C012F044C013F006EC0FF010C029F088
:1012800011C02AF012C02BF013C02CF0000E2D6EEE
:10129000000E2E6E800E2F6EBF0E306EB3EC0AF075
:1012A00029C03DF02AC03EF02BC03FF02CC040F0DA
:1012B00097EF0AF0AC98AC84B88639C0D9FF3AC031
:1012C000DAFFDECF3BF0DDCF3CF03BC002F03CC0AC
:1012D00003F0046A056A000ED0EC11F002C014F0AD
:1012E00003C015F004C016F005C017F0000E106E14
:1012F000240E116EF40E126E4A0E136E06EC0FF0F1
:1013000010C041F011C042F012C043F013C044F0CD
:10131000000E146E000E156E800E166E400E176EC7
:1013200041C010F042C011F043C012F044C013F0AD
:1013300006EC0FF010C029F011C02AF012C02BF0FB
:1013400013C02CF0000E2D6E000E2E6E800E2F6E30
:10135000BF0E306EB3EC0AF029C03DF02AC03EF05B
:101360002BC03FF02CC040F097EF0AF0AC88B89645
:1013700039C0D9FF3AC0DAFFDECF3BF0DDCF3CF019
:101380003BC002F03CC003F0046A056A000ED0ECDA
:1013900011F002C014F003C015F004C016F005C02F
:1013A00017F0000E106E240E116EF40E126E4A0E1F
:1013B000136E06EC0FF010C041F011C042F012C0E5
:1013C00043F013C044F0000E146E000E156E800E34
:1013D000166E400E176E41C010F042C011F043C0AF
:1013E00012F044C013F006EC0FF010C029F011C049
:1013F0002AF012C02BF013C02CF0000E2D6E000E40
:101400002E6E800E2F6EBF0E306EB3EC0AF029C028
:101410003DF02AC03EF02BC03FF02CC040F097EFCB
:101420000AF0AC88B88639C0D9FF3AC0DAFFDECFFF
:101430003BF0DDCF3CF03BC002F03CC003F0046A5F
:10144000056A000ED0EC11F002C014F003C015F0D4
:1014500004C016F005C017F0000E106E240E116EB9
:10146000F40E126E4A0E136E06EC0FF010C041F02F
:1014700011C042F012C043F013C044F0000E146ECD
:10148000000E156E800E166E400E176E41C010F0E5
:1014900042C011F043C012F044C013F006EC0FF04C
:1014A00010C029F011C02AF012C02BF013C02CF08C
:1014B000000E2D6E000E2E6E800E2F6EBF0E306E43
:1014C000B3EC0AF029C03DF02AC03EF02BC03FF03B
:1014D0002CC040F097EF0AF020EE02F03950D926E8
:1014E0003A50DA22DF503B6E3C6A3C50000AD8B4D6
:1014F0007CEF0AF097EF0AF03B50000AD8B446EFB1
:1015000008F0010AD8B4A2EF08F0030AD8B4FEEF3D
:1015100008F0010AD8B45AEF09F0070AD8B4B6EFB8
:1015200009F0010AD8B411EF0AF097EF0AF03DC0B4
:1015300002F03EC003F03FC004F040C005F0E2EC12
:1015400013F00250AF6E3DC002F03EC003F03FC04A
:1015500004F040C005F0E2EC13F003C002F0036AAF
:101560000250B06E12002C50800B356E2C502C2483
:10157000376E2BAEBEEF0AF0C0EF0AF0C1EF0AF0F3
:1015800037803750D8B4C7EF0AF0C9EF0AF0DEEF62
:101590000AF03728D8A4CFEF0AF0D1EF0AF0D9EF3C
:1015A0000AF0000E296E000E2A6E000E2B6E000E41
:1015B0002C6E2B8E000E2C6EE6EF0AF0000E296EBC
:1015C000000E2A6E000E2B6E000E2C6E3050800B1B
:1015D000366E35503618D8B4F0EF0AF0F2EF0AF054
:1015E000F3EF0AF0358C30503024366E2FAEFBEF1F
:1015F0000AF0FDEF0AF0FEEF0AF036803650D8B45C
:1016000004EF0BF006EF0BF01BEF0BF03628D8A41D
:101610000CEF0BF00EEF0BF016EF0BF0000E2D6E33
:10162000000E2E6E000E2F6E000E306E2F8E000EEE
:10163000306E23EF0BF0000E2D6E000E2E6E000E9E
:101640002F6E000E306E3750365CD8B02AEF0BF09C
:101650002CEF0BF053EF0BF035AC31EF0BF033EF19
:101660000BF035EF0BF0800E351A37C038F036C06E
:1016700037F038C036F029C038F02DC029F038C016
:101680002DF02AC038F02EC02AF038C02EF02BC022
:1016900038F02FC02BF038C02FF02CC038F030C0FD
:1016A0002CF038C030F0000E386E375036C031F0B4
:1016B000326A315E000E325A32BE68EF0BF03250A1
:1016C00009E11A0E315CD8A068EF0BF06AEF0BF05D
:1016D000A1EF0BF029502A102B102C10D8A473EF77
:1016E0000BF076EF0BF0010E77EF0BF0000E386E7B
:1016F000000E296E000E2A6E000E2B6E000E2C6E50
:1017000036C037F0AAEF0BF038A089EF0BF08BEF63
:101710000BF091EF0BF0D89038300109386E93EF51
:101720000BF0D890383229A098EF0BF09AEF0BF01D
:101730009BEF0BF0388E2C342C322B322A3229328C
:10174000372A3650375CD8A0A8EF0BF0AAEF0BF081
:1017500084EF0BF035BCAFEF0BF0B1EF0BF0F1EF16
:101760000BF03750D8A4B7EF0BF0B9EF0BF0C3EF85
:101770000BF0000E296E000E2A6E000E2B6E000E6E
:101780002C6E12EF0DF02D5029262E502A222F50AC
:101790002B2230502C222CA0D0EF0BF0D2EF0BF0EC
:1017A0007EEF0CF038A0D7EF0BF0D9EF0BF0DFEFA6
:1017B0000BF0D89038300109386EE1EF0BF0D8907B
:1017C000383229A0E6EF0BF0E8EF0BF0E9EF0BF071
:1017D000388E2C342C322B322A322932372A7EEFA3
:1017E0000CF02D50295C2E502A582F502B582C507D
:1017F000800A316E3050800A3158D8B002EF0CF0B8
:1018000004EF0CF02FEF0CF029502D5C316E2A50B4
:101810002E58326E2B502F58336E2C503058346E59
:10182000FF0E3124296EFF0E32202A6EFF0E332068
:101830002B6EFF0E34202C6E800E351A386C38500B
:10184000D8A425EF0CF027EF0CF037EF0CF0010EC9
:101850002926000E2A222B222C2237EF0CF02D50A5
:10186000295E2E502A5A2F502B5A30502C5A29506C
:101870002A102B102C10D8A440EF0CF042EF0CF0E3
:1018800077EF0CF03850D8A448EF0CF04AEF0CF08A
:1018900077EF0CF0000E296E000E2A6E000E2B6EF4
:1018A000000E2C6E12EF0DF0D89029362A362B360A
:1018B0002C3638AE5EEF0CF060EF0CF061EF0CF000
:1018C000298038A066EF0CF068EF0CF06CEF0CF09C
:1018D000D88038366EEF0CF0D89038363750D8B400
:1018E00074EF0CF076EF0CF077EF0CF037062BAEC0
:1018F0007CEF0CF07EEF0CF054EF0CF0000E366E27
:1019000038AE85EF0CF087EF0CF09FEF0CF038C08D
:1019100031F07F0E3116D8B490EF0CF092EF0CF04E
:1019200096EF0CF0010E366E9FEF0CF029A09BEFA6
:101930000CF09DEF0CF09FEF0CF092EF0CF0365096
:10194000D8B4A5EF0CF0A7EF0CF0D2EF0CF0010E1D
:101950002926000E2A222B222C222CA0B2EF0CF0DA
:10196000B4EF0CF0D2EF0CF029C031F02AC032F005
:101970002BC033F02CC034F03434343233323232B2
:10198000313231C029F032C02AF033C02BF034C0DC
:101990002CF03728D8B4CFEF0CF0D1EF0CF0D2EF09
:1019A0000CF0372A3728D8B4D8EF0CF0DAEF0CF067
:1019B000E2EF0CF03750D8A4E0EF0CF0E2EF0CF0BF
:1019C000F4EF0CF0000E296E000E2A6E000E2B6E46
:1019D000000E2C6E3750D8A4F0EF0CF0F2EF0CF0A4
:1019E000F4EF0CF0000E356E37A0F9EF0CF0FBEFC2
:1019F0000CF0FEEF0CF02B8EFFEF0CF02B9ED8902E
:101A000037302C6E35AE07EF0DF009EF0DF00AEF11
:101A10000DF02C8E29C029F02AC02AF02BC02BF003
:101A20002CC02CF012000600F2A819EF0DF01BEFED
:101A30000DF024EF0DF0F2A220EF0DF022EF0DF0EB
:101A400024EF0DF068EC19F0F0A629EF0DF02BEF64
:101A50000DF034EF0DF0F0A030EF0DF032EF0DF09F
:101A600034EF0DF066EC19F0F0A839EF0DF03BEF14
:101A70000DF044EF0DF0F0A240EF0DF042EF0DF04D
:101A800044EF0DF064EC19F0F2A649EF0DF04BEFC6
:101A90000DF066EF0DF0F2A050EF0DF052EF0DF0EB
:101AA00066EF0DF081A857EF0DF059EF0DF066EFDE
:101AB0000DF07804D8A45FEF0DF061EF0DF066EF44
:101AC0000DF0000E786E000E38EC19F0F2A66BEFF8
:101AD0000DF06DEF0DF088EF0DF0F2A072EF0DF04C
:101AE00074EF0DF088EF0DF081B879EF0DF07BEF1A
:101AF0000DF088EF0DF07850D8A481EF0DF083EF52
:101B00000DF088EF0DF0010E786E010E38EC19F033
:101B1000F2A68DEF0DF08FEF0DF0AAEF0DF0F2A011
:101B200094EF0DF096EF0DF0AAEF0DF081AA9BEF68
:101B30000DF09DEF0DF0AAEF0DF07704D8A4A3EF00
:101B40000DF0A5EF0DF0AAEF0DF0000E776E000E70
:101B50002BEC19F0F2A6AFEF0DF0B1EF0DF0CCEFDA
:101B60000DF0F2A0B6EF0DF0B8EF0DF0CCEF0DF0E8
:101B700081BABDEF0DF0BFEF0DF0CCEF0DF0775057
:101B8000D8A4C5EF0DF0C7EF0DF0CCEF0DF0010EAE
:101B9000776E010E2BEC19F0F2A6D1EF0DF0D3EF1A
:101BA0000DF0EEEF0DF0F2A0D8EF0DF0DAEF0DF042
:101BB000EEEF0DF081ACDFEF0DF0E1EF0DF0EEEFA9
:101BC0000DF07604D8A4E7EF0DF0E9EF0DF0EEEF9D
:101BD0000DF0000E766E000E1EEC19F0F2A6F3EF7B
:101BE0000DF0F5EF0DF010EF0EF0F2A0FAEF0DF0A2
:101BF000FCEF0DF010EF0EF081BC01EF0EF003EFE3
:101C00000EF010EF0EF07650D8A409EF0EF00BEFA7
:101C10000EF010EF0EF0010E766E010E1EEC19F0B4
:101C2000F2A615EF0EF017EF0EF032EF0EF0F2A065
:101C30001CEF0EF01EEF0EF032EF0EF081AE23EF30
:101C40000EF025EF0EF032EF0EF07504D8A42BEF56
:101C50000EF02DEF0EF032EF0EF0000E756E000E4E
:101C600011EC19F0F2A637EF0EF039EF0EF054EF49
:101C70000EF0F2A03EEF0EF040EF0EF054EF0EF03B
:101C800081BE45EF0EF047EF0EF054EF0EF07550A9
:101C9000D8A44DEF0EF04FEF0EF054EF0EF0010E02
:101CA000756E010E11EC19F09DAC59EF0EF05BEF63
:101CB0000EF064EF0EF09EAC60EF0EF062EF0EF0EF
:101CC00064EF0EF070EC19F0F2AA69EF0EF06BEF12
:101CD0000EF074EF0EF0F2A470EF0EF072EF0EF053
:101CE00074EF0EF051EC19F09DA079EF0EF07BEF40
:101CF0000EF084EF0EF09EA080EF0EF082EF0EF05B
:101D000084EF0EF04BEC19F09DA289EF0EF08BEFF3
:101D10000EF094EF0EF09EA290EF0EF092EF0EF008
:101D200094EF0EF05CEC19F0A0A299EF0EF09BEF8F
:101D30000EF0A4EF0EF0A1A2A0EF0EF0A2EF0EF0B5
:101D4000A4EF0EF045EC19F09DA4A9EF0EF0ABEF57
:101D50000EF0B4EF0EF09EA4B0EF0EF0B2EF0EF066
:101D6000B4EF0EF06EEC19F0A0A0B9EF0EF0BBEFDF
:101D70000EF0C4EF0EF0A1A0C0EF0EF0C2EF0EF017
:101D8000C4EF0EF06CEC19F09DA8C9EF0EF0CBEF8C
:101D90000EF0D4EF0EF09EA8D0EF0EF0D2EF0EF0C2
:101DA000D4EF0EF06AEC19F09DAAD9EF0EF0DBEF3C
:101DB0000EF0E4EF0EF09EAAE0EF0EF0E2EF0EF070
:101DC000E4EF0EF072EC19F09DA6E9EF0EF0EBEFE8
:101DD0000EF0F4EF0EF09EA6F0EF0EF0F2EF0EF024
:101DE000F4EF0EF060EC19F0A0A6F9EF0EF0FBEFA7
:101DF0000EF004EF0FF0A1A600EF0FF002EF0FF0CE
:101E000004EF0FF062EC19F07E9211001350800B7A
:101E1000206E13501324276E12AE11EF0FF013EF44
:101E20000FF014EF0FF027802750D8B41AEF0FF0FF
:101E30001CEF0FF031EF0FF02728D8A422EF0FF09E
:101E400024EF0FF02CEF0FF0000E106E000E116E4D
:101E5000000E126E000E136E128E000E136E39EF0E
:101E60000FF0000E106E000E116E000E126E000EBE
:101E7000136E1750800B201A17501724286E16AEB9
:101E800044EF0FF046EF0FF047EF0FF02880285097
:101E9000D8B44DEF0FF04FEF0FF064EF0FF028289C
:101EA000D8A455EF0FF057EF0FF05FEF0FF0000ED3
:101EB000146E000E156E000E166E000E176E168E46
:101EC000000E176E6CEF0FF0000E146E000E156E04
:101ED000000E166E000E176E145015101610171007
:101EE000D8A475EF0FF077EF0FF08FEF0FF0000E23
:101EF000106E000E116E000E126E000E136E800E2C
:101F000012127F0E13122050131210C010F011C0C5
:101F100011F012C012F013C013F0D2EF10F02750DE
:101F2000D8A495EF0FF097EF0FF0A1EF0FF0000E90
:101F3000106E000E116E000E126E000E136ED2EFB8
:101F400010F0285027C018F0196A185E000E195AB0
:101F50007F0E1824216E000E1920226E10C01CF076
:101F600011C01DF012C01EF013C01FF0000E106E45
:101F7000000E116E000E126E000E136E000E236E18
:101F8000000E246E000E256E000E266E000E286ECA
:101F900002EF10F02850D8B4D0EF0FF0D2EF0FF0CE
:101FA000E9EF0FF0D8901C361D361E361F36D8903C
:101FB000103611361236133626AEE1EF0FF0E3EF8E
:101FC0000FF0E4EF0FF01080D8902336243625363A
:101FD000263614501C5C15501D5816501E581750AC
:101FE0001F58D8A0F6EF0FF0F8EF0FF001EF10F048
:101FF000268C14501C5E15501D5A16501E5A175030
:102000001F5A282A190E286408EF10F00AEF10F062
:10201000CAEF0FF01C501D101E101F10D8B413EF84
:1020200010F015EF10F02DEF10F023802DEF10F0D1
:10203000D890103611361236133626AE22EF10F035
:1020400024EF10F025EF10F01080D89023362436BE
:10205000253626362106D8A0220612AE32EF10F021
:1020600034EF10F018EF10F0000E286E26AE3BEFA4
:1020700010F03DEF10F061EF10F0FF0E2314186E1A
:10208000FF0E2414196EFF0E25141A6E7F0E2614EF
:102090001B6E185019101A101B10D8B452EF10F004
:1020A00054EF10F058EF10F0010E286E61EF10F0B1
:1020B00010A05DEF10F05FEF10F061EF10F054EF43
:1020C00010F02850D8B467EF10F069EF10F08DEFE2
:1020D00010F0010E1026000E11221222132213A05E
:1020E00074EF10F076EF10F08DEF10F010C018F0D4
:1020F00011C019F012C01AF013C01BF01B341B32B0
:102100001A321932183218C010F019C011F01AC062
:1021100012F01BC013F0214A222A22BE98EF10F0C1
:10212000225008E12128D8A098EF10F09AEF10F083
:10213000A5EF10F0000E226E2168000E106E000E4A
:10214000116E000E126E000E136E22BEB2EF10F072
:10215000225006E12104D8B0B0EF10F0B2EF10F039
:10216000C0EF10F0000E226E000E216E000E106EF9
:10217000000E116E000E126E000E136E000E206E19
:1021800021C027F027A0C7EF10F0C9EF10F0CCEF67
:1021900010F0128ECDEF10F0129ED8902730136EF3
:1021A00083EF0FF01200000E4B6E000E4A6E000E11
:1021B0004C6E6AEC18F0730E026E000E036EF5ECB6
:1021C00018F0670E7318D8A4E8EF10F0EAEF10F0DB
:1021D0000CEF11F0740E0C6E000E0D6E3BEC17F050
:1021E0007B0E0C6E000E0D6EDAEC14F0590E036EC1
:1021F000100E046E000E066E090E056E18EC18F037
:102200002B0E036E100E046E000E066E0B0E056E86
:1022100018EC18F0DBEF10F0610E7318D8A413EF70
:1022200011F015EF11F037EF11F07D0E0C6E000E6E
:102230000D6E3BEC17F0790E0C6E000E0D6E4FEC30
:1022400015F0630E036E100E046E000E066E090E7E
:10225000056E18EC18F0370E036E100E046E000EAB
:10226000066E0B0E056E18EC18F0DBEF10F07A0E10
:102270007318D8A43EEF11F040EF11F062EF11F0A7
:102280007B0E0C6E000E0D6E65EC14F0740E0C6E71
:10229000000E0D6E76EC17F0430E036E100E046EFA
:1022A000000E066E0A0E056E18EC18F0110E036E85
:1022B000100E046E000E066E0C0E056E18EC18F073
:1022C000DBEF10F0610E7318D8A469EF11F06BEF1B
:1022D00011F06DEF11F0DBEF10F0720E7318D8A44F
:1022E00074EF11F076EF11F0CCEF11F07D0E0C6E63
:1022F000000E0D6E76EC17F0790E0C6E000E0D6E62
:1023000065EC14F04E0E036E100E046E000E066E99
:102310000A0E056E18EC18F01E0E036E100E046EF9
:10232000000E066E0C0E056E18EC18F0000E4B6ECB
:10233000000E4A6ED8904A34D96E4B34DA6E800E55
:10234000D926000EDA22DF50026E030E8EEC18F052
:10235000030E496E8A0E486E560EE82EFED7482EA2
:10236000FCD7492EFAD76D0E036E100E046E000EC8
:10237000066E060E056E18EC18F04A4A4B2A4B50B2
:1023800009E10A0E4A5CD8A0C8EF11F0CAEF11F0BB
:102390009AEF11F0DBEF10F0DBEF10F007EF00F039
:1023A0000A6E0A50D8B4D7EF11F0D9EF11F0FBEF55
:1023B00011F005BEE0EF11F0DEEF11F0FBEF11F0D0
:1023C00002C006F003C007F004C008F005C009F021
:1023D000061E071E081E091E062A000E07220822D6
:1023E000092206C00CF007C00DF008C00EF009C0AD
:1023F0000FF003EF12F002C00CF003C00DF004C0A8
:102400000EF005C00FF00250031004100510D8A400
:102410000CEF12F00EEF12F018EF12F0000E026E39
:10242000000E036E000E046E000E056EA9EF12F092
:10243000960E0B6E22EF12F00B2AD8900F320E324E
:102440000D320C32000E0C14066E000E0D14076EC9
:10245000000E0E14086EFE0E0F14096E06500710C3
:1024600008100910D8A437EF12F039EF12F01CEF62
:1024700012F047EF12F00B2A010E0C26000E0D226F
:102480000E220F22D8900F320E320D320C32000E77
:102490000C14066E000E0D14076E000E0E14086E5E
:1024A000FF0E0F14096E0650071008100910D8A46B
:1024B0005CEF12F05EEF12F03BEF12F066EF12F0FD
:1024C0000B06D8900C360D360E360F360EBE6BEF5F
:1024D00012F06DEF12F075EF12F0020E0B6073EF59
:1024E00012F075EF12F060EF12F00BB07AEF12F00D
:1024F0007CEF12F07DEF12F00E9ED8900B320BC0E5
:1025000006F0076A086A096A06C009F0086A076ADD
:10251000066A06500C1207500D1208500E12095090
:102520000F120A50D8B497EF12F099EF12F0A1EF02
:1025300012F005BEA0EF12F09EEF12F0A1EF12F024
:102540000F8E0CC002F00DC003F00EC004F00FC0DF
:1025500005F01200010E0A6E02500310D8B4B3EF5A
:1025600012F0B5EF12F0C6EF12F002C0D9FF03C0AF
:10257000DAFFDF30E832E832070B046E070E04643E
:10258000C4EF12F0C6EF12F029EF13F0000E0A6E3E
:102590004AEF13F002C0D9FF03C0DAFFDF30E832A0
:1025A000E832070B046E010E056E042ADAEF12F012
:1025B000D8900536042ED8EF12F00550FF0A066EAB
:1025C00002C0D9FF03C0DAFFDF50070B076E0750C8
:1025D000020DA80EF324D96E000EF420DA6EDECFC1
:1025E00008F0DDCF09F008C0D9FF09C0DAFF0650B6
:1025F000DF164AEF13F002C0D9FF03C0DAFFDF3065
:10260000E832E832070B046E010E056E042A0BEF68
:1026100013F0D8900536042E09EF13F002C0D9FF4D
:1026200003C0DAFFDF50070B066E0650020DA80E3E
:10263000F324D96E000EF420DA6EDECF07F0DDCF82
:1026400008F007C0D9FF08C0DAFF0550DF124AEFD3
:1026500013F002C0D9FF03C0DAFFDFBC32EF13F082
:1026600035EF13F0010E36EF13F0000E046E056A1D
:102670000550000AD8B43FEF13F0C6EF12F0045033
:10268000000AD8B4CAEF12F0010AD8B4FBEF12F076
:10269000C6EF12F00A501200010E0B6E025003102A
:1026A000D8B455EF13F057EF13F068EF13F002C0F2
:1026B000D9FF03C0DAFFDF30E832E832070B056EDE
:1026C000070E056466EF13F068EF13F0CBEF13F01D
:1026D000000E0B6EE0EF13F002C0D9FF03C0DAFF6B
:1026E000DF30E832E832070B056E010E066E052A70
:1026F0007CEF13F0D8900636052E7AEF13F00650D3
:10270000FF0A076E02C0D9FF03C0DAFFDF50070BD4
:10271000086E0850020D9E0EF324D96E000EF420B0
:10272000DA6EDECF09F0DDCF0AF009C0D9FF0AC0AA
:10273000DAFF0750DF16E0EF13F002C0D9FF03C045
:10274000DAFFDF30E832E832070B056E010E066E65
:10275000052AADEF13F0D8900636052EABEF13F037
:1027600002C0D9FF03C0DAFFDF50070B076E075026
:10277000020D9E0EF324D96E000EF420DA6EDECF29
:1027800008F0DDCF09F008C0D9FF09C0DAFF065014
:10279000DF12E0EF13F00450056E066A0650000ADF
:1027A000D8B4D5EF13F068EF13F00550000AD8B491
:1027B0006CEF13F0010AD8B49DEF13F068EF13F03B
:1027C0000B501200043405340B6E0B50D8A4EBEF01
:1027D00013F0EDEF13F0F7EF13F0000E026E000EA2
:1027E000036E000E046E000E056E64EF14F002C05E
:1027F00006F003C007F004C008F005C009F0200E81
:1028000007EF14F0D8900932083207320632E82E6A
:1028100002EF14F006500A6E048EFF0E0216FF0E31
:102820000316FF0E0416000E0516960E0B5E0BBE69
:102830001EEF14F01CEF14F034EF14F00B50800A6C
:10284000970FD8B026EF14F028EF14F02AEF14F009
:10285000EDEF13F0D89005320432033202320B3E12
:102860002AEF14F04CEF14F01F0E0B643AEF14F043
:102870003CEF14F044EF14F0EDEF13F0D890023673
:102880000336043605360B060B50D8A44AEF14F075
:102890004CEF14F03EEF14F00A50D8B452EF14F09D
:1028A00054EF14F05CEF14F0051E041E031E026CBE
:1028B000000E03220422052202C002F003C003F02E
:1028C00004C004F005C005F01200010E0F6E0C509C
:1028D0000D10D8A46EEF14F070EF14F074EF14F034
:1028E000000E0F6ED8EF14F06CC010F00CC0D9FFC2
:1028F0000DC0DAFFDF500F0B0E6E10500E18F80BE4
:102900000E18106E0CC0D9FF0DC0DAFFDF38070BB0
:102910000E6E0E460E460E4610500E18C70B0E18C1
:10292000106E109C0CC0D9FF0DC0DAFFDFAE02D0D4
:10293000108E01D0109E6BC011F020EE01F00C50F3
:10294000D9260D50DA22DF500F0B0E6E11500E18E3
:10295000F80B0E18116E20EE01F00C50D9260D5018
:10296000DA22DF38070B0E6E0E460E460E46115069
:102970000E18C70B0E18116E119C20EE01F00C50B2
:10298000D9260D50DA22DFAE02D0118E01D0119E71
:10299000100E026E000E036E000E046E4CEC13F06F
:1029A000110E026E000E036E000E046E4CEC13F05E
:1029B0000F501200010E0F6E0C500D10D8A4E3EF53
:1029C00014F0E5EF14F0E9EF14F0000E0F6E4DEF88
:1029D00015F070C010F00CC0D9FF0DC0DAFFDF5049
:1029E0000F0B0E6E10500E18F80B0E18106E0CC058
:1029F000D9FF0DC0DAFFDF38070B0E6E0E460E460C
:102A00000E4610500E18C70B0E18106E109C0CC0FE
:102A1000D9FF0DC0DAFFDFAE02D0108E01D0109EBC
:102A20006FC011F020EE01F00C50D9260D50DA22C3
:102A3000DF500F0B0E6E11500E18F80B0E18116EA2
:102A400020EE01F00C50D9260D50DA22DF38070BAA
:102A50000E6E0E460E460E4611500E18C70B0E187F
:102A6000116E119C20EE01F00C50D9260D50DA2287
:102A7000DFAE02D0118E01D0119E100E026E000E3C
:102A8000036E010E046E4CEC13F0110E026E000E7C
:102A9000036E000E046E4CEC13F00F501200010E8A
:102AA0000F6E0C500D10D8A458EF15F05AEF15F01A
:102AB0005EEF15F0000E0F6EC2EF15F06EC010F055
:102AC0000CC0D9FF0DC0DAFFDF500F0B0E6E105097
:102AD0000E18F80B0E18106E0CC0D9FF0DC0DAFFDF
:102AE000DF38070B0E6E0E460E460E4610500E18BF
:102AF000C70B0E18106E109C0CC0D9FF0DC0DAFF6A
:102B0000DFAE02D0108E01D0109E6DC011F020EE0D
:102B100001F00C50D9260D50DA22DF500F0B0E6E4B
:102B200011500E18F80B0E18116E20EE01F00C501B
:102B3000D9260D50DA22DF38070B0E6E0E460E46F0
:102B40000E4611500E18C70B0E18116E119C20EE78
:102B500001F00C50D9260D50DA22DFAE02D0118ED2
:102B600001D0119E100E026E000E036E000E046E58
:102B70004CEC13F0110E026E000E036E010E046E8B
:102B80004CEC13F00F501200010E136E1050111088
:102B9000D8A4CDEF15F0CFEF15F0D3EF15F0000E60
:102BA000136E33EF16F072C014F010C0D9FF11C0CD
:102BB000DAFFDF500F0B126E14501218F80B1218B8
:102BC000146E10C0D9FF11C0DAFFDF38070B126E88
:102BD00012461246124614501218C70B1218146EE1
:102BE000149C10C0D9FF11C0DAFFDFAE02D0148EE2
:102BF00001D0149E71C015F020EE01F01050D926BE
:102C00001150DA22DF500F0B126E15501218F80B0C
:102C10001218156E20EE01F01050D9261150DA224C
:102C2000DF38070B126E1246124612461550121864
:102C3000C70B1218156E159C20EE01F01050D92606
:102C40001150DA22DFAE02D0158E01D0159E140E7F
:102C50000C6E000E0D6EB1EC17F0150E0C6E000E22
:102C60000D6EB1EC17F01350120020EE06F002507A
:102C7000D9260350DA22DFA040EF16F042EF16F01B
:102C8000A2EF16F0AB8820EE0AF00250D9260350CE
:102C9000DA22DECFC6F0DDCFC7F020EE0CF0025016
:102CA000D9260350DA22DECFC4F0DDCFC5F020EE06
:102CB0000EF00250D9260350DA22DECFC2F0DDCF6B
:102CC000C3F020EE06F00250D9260350DA22DFA22C
:102CD0006CEF16F06EEF16F074EF16F09D8A9D8A79
:102CE000F28EF28C82EF16F020EE06F00250D9261A
:102CF0000350DA22DFB27FEF16F081EF16F082EF99
:102D000016F09D9A20EE06F00250D9260350DA22E2
:102D1000DFA48DEF16F08FEF16F092EF16F0AB8C6C
:102D2000A2EF16F020EE06F00250D9260350DA2268
:102D3000DFB49DEF16F09FEF16F0A2EF16F0AB9CFC
:102D4000A2EF16F0120020EE04F00250D926035034
:102D5000DA22DFA0AEEF16F0B0EF16F0FCEF16F0BF
:102D6000AC8A20EE08F00250D9260350DA22DECFDA
:102D7000C8F0DDCFC9F020EE04F00250D926035090
:102D8000DA22DFA2C6EF16F0C8EF16F0CEEF16F08B
:102D90009D889D88F28EF28CDCEF16F020EE04F018
:102DA0000250D9260350DA22DFB2D9EF16F0DBEF5A
:102DB00016F0DCEF16F09D9820EE04F00250D926B4
:102DC0000350DA22DFA4E7EF16F0E9EF16F0ECEF9C
:102DD00016F0AC8CFCEF16F020EE04F00250D92671
:102DE0000350DA22DFB4F7EF16F0F9EF16F0FCEF3C
:102DF00016F0AC9CFCEF16F01200010E136E105092
:102E00001110D8A406EF17F008EF17F00CEF17F029
:102E1000000E136E39EF17F06AC014F010C0D9FF1E
:102E200011C0DAFFDF500F0B126E14501218F80B9E
:102E30001218146E10C0D9FF11C0DAFFDF38070B6B
:102E4000126E12461246124614501218C70B121870
:102E5000146E149C10C0D9FF11C0DAFFDFAE02D08F
:102E6000148E01D0149E140E0C6E000E0D6EB1EC7B
:102E700017F0135012000C500D10D8A442EF17F0A9
:102E800044EF17F046EF17F075EF17F069C00FF039
:102E90000CC0D9FF0DC0DAFFDF500F0B0E6E0F50C4
:102EA0000E18F80B0E180F6E0CC0D9FF0DC0DAFF0C
:102EB000DF38070B0E6E0E460E460E460F500E18EC
:102EC000C70B0E180F6E0F9C0CC0D9FF0DC0DAFF98
:102ED000DFAE02D00F8E01D00F9E0F0E026E000EDD
:102EE000036E010E046E4CEC13F012000C500D102A
:102EF000D8A47DEF17F07FEF17F081EF17F0B0EF58
:102F000017F068C00FF00CC0D9FF0DC0DAFFDF501A
:102F10000F0B0E6E0F500E18F80B0E180F6E0CC024
:102F2000D9FF0DC0DAFFDF38070B0E6E0E460E46D6
:102F30000E460F500E18C70B0E180F6E0F9C0CC0CC
:102F4000D9FF0DC0DAFFDFAE02D00F8E01D00F9E89
:102F50000F0E026E000E036E000E046E4CEC13F0AA
:102F600012000C500D10D8B4B8EF17F0BAEF17F0EC
:102F7000CBEF17F00CC0D9FF0DC0DAFFDF30E8321D
:102F8000E832070B0E6E070E0E64C9EF17F0CBEF99
:102F900017F0CFEF17F0000E0F6EE5EF17F00CC033
:102FA00002F00DC003F0AAEC12F00F6E0CC002F09C
:102FB0000DC003F00CC0D9FF0DC0DAFF000EDFBE5C
:102FC000010E046E4CEC13F00F6E0F501200A80EA1
:102FD000F66E310EF76E000EF86E00EE80F010EE19
:102FE00042F00900F5CFEEFFE550E150FAE1AE0EF8
:102FF000F66E320EF76E000EF86E00EE75F010EE03
:1030000009F00900F5CFEEFFE550E150FAE100EEDE
:10301000C2F0240EEE6AE806FDE100EE4DF0280E47
:10302000EE6AE806FDE17E907E920001D3EF10F09B
:10303000010E096E000E0B6E000E0A6E000E0B6E76
:10304000000E0A6E36EF18F00A500324076E0B507C
:103050000420086E07C0F6FF08C0F7FFF86A0800F2
:10306000F55004EC19F0096E0A4A0B2A05500A5C67
:1030700006500B58D8A03FEF18F041EF18F024EF9E
:1030800018F00950120045504610D8A44AEF18F025
:103090004CEF18F050EF18F0000E476E68EF18F084
:1030A000AB9E948C948E45C039F046C03AF03CEC0F
:1030B00008F045C002F046C003F0A3EC16F045C08E
:1030C00002F046C003F035EC16F0AB8E010E476EF1
:1030D00047501200B20E456E000E466E43EC18F0DB
:1030E000800E026E030EB1EC18F0740E106E000E1E
:1030F000116EFDEC16F07D0E106E000E116EFDECE3
:1031000016F07B0E106E000E116EC4EC15F0790EE9
:10311000106E000E116EC4EC15F01200066E010E5A
:10312000056E050E066497EF18F099EF18F09DEF05
:1031300018F0000E056EAFEF18F00650020D9E0E4F
:10314000F324D96E000EF420DA6EDECF03F0DDCF6B
:1031500004F003C0D9FF04C0DAFF02C0DFFF05504E
:103160001200066E010E056E050E0664BAEF18F029
:10317000BCEF18F0C0EF18F0000E056ED2EF18F09B
:103180000650020DA80EF324D96E000EF420DA6E5C
:10319000DECF03F0DDCF04F003C0D9FF04C0DAFFB7
:1031A00002C0DFFF05501200C000F900A400B0000B
:1031B000990092008200F80080009000800F810F3B
:1031C000820F830F840F890F8A0F8B0F8C0F8D0F47
:1031D000920F930F940F950F960F8025000001001A
:1031E000010000000000000000009EAAFAEF18F0A5
:1031F000FCEF18F0F5EF18F002C0D9FF03C0DAFFBA
:10320000AECFDFFF000E1200026EACA20AEF19F083
:103210000CEF19F005EF19F09D8802C0ADFF010E0B
:103220001200016EF2900150D8A419EF19F01BEFB3
:1032300019F01DEF19F01DEF19F01200016EF29058
:103240000150D8A426EF19F028EF19F02AEF19F051
:103250002AEF19F01200016EF2900150D8A433EF5A
:1032600019F035EF19F037EF19F037EF19F01200B8
:10327000016EF2900150D8A440EF19F042EF19F01E
:1032800044EF19F044EF19F01200A1924E50B36EC2
:103290004DC0B2FF12009E905050CF6E4FC0CEFF77
:1032A0001200F2945250D76E51C0D6FF12000101A5
:0732B0000101405020301025
:1032B8009E9263C0CCFF12009E961200A196120047
:1032C800F0921200F0901200F29212009D981200F3
:0E32D800A19012009E9412009E9C1200120003
:020000040020DA
:08000000FFFFFFFFFFFFFFFF00
:020000040030CA
:0E000000FF02091EFF8181FF0FC00FE00F40BD
:00000001FF
