:0400000007EF00F016
:0A0008007E82B1ED0BF097EF17F0C8
:10100000003738392F3435362A3132332D23303DED
:101010002B4D4F48414D45442048414D4544004CDF
:101020004D333520546573740054656D70313A202A
:0D1030000054656D70323A20002569000003
:10103E001350800B1C6E13501324226E12AE2AEF27
:10104E0008F02CEF08F02DEF08F022802250D8B4D3
:10105E0033EF08F035EF08F048EF08F02228D8A457
:10106E003BEF08F03DEF08F045EF08F0000E106E74
:10107E00000E116E000E126E000E136E128E50EFD9
:10108E0008F0000E106E000E116E000E126E000EA5
:10109E00136E1750800B1C1A17501724216E16AEA4
:1010AE005BEF08F05DEF08F05EEF08F02180215055
:1010BE00D8B464EF08F066EF08F079EF08F0212855
:1010CE00D8A46CEF08F06EEF08F076EF08F0000E83
:1010DE00146E000E156E000E166E000E176E168E26
:1010EE0081EF08F0000E146E000E156E000E166ED7
:1010FE00000E176E2150D8B487EF08F089EF08F074
:10110E0091EF08F02250D8A48FEF08F091EF08F07D
:10111E009BEF08F0000E106E000E116E000E126E98
:10112E00000E136E33EF0AF016501002F3CF27F0B5
:10113E00F4CF28F027501D6E1E6A1F6A206A2850B1
:10114E00236E246A256A266A15501102F3CF27F002
:10115E00F4CF28F027501D26000E1E221F2220221B
:10116E0028502326000E2422252226221450120255
:10117E00F3CF27F0F4CF28F027501D26000E1E22A5
:10118E001F22202228502326000E2422252226222A
:10119E001FC020F01EC01FF01DC01EF01D6A14508F
:1011AE001102F3CF27F0F4CF28F027501D26285038
:1011BE001E22000E1F22000E202215501002F3CF09
:1011CE0027F0F4CF28F027501D2628501E22000E9F
:1011DE001F22000E20221FC020F01EC01FF01DC0B7
:1011EE001EF01D6A14501002F3CF27F0F4CF28F032
:1011FE0027501D2628501E22000E1F22000E2022D0
:10120E0016501102F3CF27F0F4CF28F027502326E3
:10121E0028502422000E2522000E262215501202DE
:10122E00F3CF27F0F4CF28F027502326285024227E
:10123E00000E2522000E262216501202F3CF27F0A2
:10124E00F4CF28F02750186E2850196E1A6A1B6AB0
:10125E001AC01BF019C01AF018C019F0186A1850ED
:10126E002326195024221A5025221B5026221DC037
:10127E0018F01EC019F01FC01AF020C01BF0190E76
:10128E004EEF09F0D8901B321A3219321832E82E6E
:10129E0049EF09F018502326195024221A502522FE
:1012AE001B5026221FC020F01EC01FF01DC01EF0B6
:1012BE001D6A215022C018F0196A1826000E192234
:1012CE00820E1824276EFF0E1920286E84EF09F067
:1012DE00D890233624362536263620AE79EF09F0FF
:1012EE007BEF09F07CEF09F02380D8901D361E3677
:1012FE001F3620362706D8A0280625AE89EF09F01E
:10130E008BEF09F06FEF09F0000E216E20AE92EF19
:10131E0009F094EF09F0B8EF09F0FF0E1D14186EE6
:10132E00FF0E1E14196EFF0E1F141A6E7F0E201460
:10133E001B6E185019101A101B10D8B4A9EF09F013
:10134E00ABEF09F0AFEF09F0010E216EB8EF09F027
:10135E0023A0B4EF09F0B6EF09F0B8EF09F0ABEF48
:10136E0009F02150D8B4BEEF09F0C0EF09F0E4EF58
:10137E0009F0010E2326000E24222522262226A065
:10138E00CBEF09F0CDEF09F0E4EF09F023C018F030
:10139E0024C019F025C01AF026C01BF01B341B32D6
:1013AE001A321932183218C023F019C024F01AC09C
:1013BE0025F01BC026F0274A282A28BEEFEF09F099
:1013CE00285008E12728D8A0EFEF09F0F1EF09F037
:1013DE00FBEF09F0000E236E000E246E800E256EBC
:1013EE007F0E266E29EF0AF028BE08EF0AF028506D
:1013FE0006E12704D8B006EF0AF008EF0AF014EF62
:10140E000AF0000E236E000E246E000E256E000EE6
:10141E00266E000E1C6E29EF0AF027C022F0FF0E7A
:10142E002316FF0E24167F0E2516000E261622A05A
:10143E0023EF0AF025EF0AF026EF0AF0258ED8905A
:10144E002230266E1C50261223C010F024C011F03C
:10145E0025C012F026C013F0120086EC18F0F20E22
:10146E001B6E000E1C6E010E1D6E040E1E6E110EF6
:10147E001F6E100E206E66EC15F00B0E636E260EB0
:10148E00626E5E0EE82EFED7622EFCD7632EFAD762
:10149E00F20E106E000E116E010E126E5EEC17F053
:1014AE00F20E1B6E000E1C6E020E1D6E050E1E6ED3
:1014BE001F0E1F6E100E206E66EC15F0F20E1B6ED8
:1014CE00000E1C6E030E1D6E010E1E6E290E1F6E7B
:1014DE00100E206E66EC15F0F20E1B6E000E1C6EDA
:1014EE00040E1D6E010E1E6E310E1F6E100E206E3E
:1014FE0066EC15F0EB0E0A6E000E0B6E000E0C6E07
:10150E00750E0D6E000E0E6EEBEC16F0EB0E0A6EF7
:10151E00000E0B6E010E0C6E730E0D6E000E0E6E27
:10152E00EBEC16F0F60E146E280E156E9C0E166E63
:10153E00400E176E75C002F076C003F0046A056A9D
:10154E00000E24EC0DF002C010F003C011F004C028
:10155E0012F005C013F01FEC08F010C029F011C0F6
:10156E002AF012C02BF013C02CF0E7EC11F029C0BA
:10157E0068F02AC069F0F60E146E280E156E9C0ED9
:10158E00166E400E176E73C002F074C003F0046A3C
:10159E00056A000E24EC0DF002C010F003C011F02D
:1015AE0004C012F005C013F01FEC08F010C029F0B3
:1015BE0011C02AF012C02BF013C02CF0E7EC11F082
:1015CE0029C066F02AC067F068C002F069C003F057
:1015DE00000E056E0A0E046EB1EC16F002C068F035
:1015EE0003C069F066C002F067C003F0000E056E1E
:1015FE000A0E046EB1EC16F002C066F003C067F07E
:10160E0068C056F069C057F0C60E586E000E596E7F
:10161E005FEC14F066C056F067C057F0BF0E586E00
:10162E00000E596E5FEC14F0F20E1B6E000E1C6E67
:10163E00030E1D6E080E1E6EC60E1F6E000E206E61
:10164E0066EC15F0F20E1B6E000E1C6E040E1D6E77
:10165E00080E1E6EBF0E1F6E000E206E66EC15F08D
:10166E00695009E11A0E685CD8A040EF0BF042EF0A
:10167E000BF05BEF0BF0FA0E0C6E000E0D6EF3EC32
:10168E0018F0020E636E450E626EAA0EE82EFED79D
:10169E00622EFCD7632EFAD77D0E0C6E000E0D6EE9
:1016AE00F6EC15F072EF0BF0FA0E0C6E000E0D6EDE
:1016BE00D0EC18F0020E636E450E626EAA0EE82E86
:1016CE00FED7622EFCD7632EFAD77D0E0C6E000E5F
:1016DE000D6EB6EC15F0675009E11A0E665CD8A0D7
:1016EE007BEF0BF07DEF0BF096EF0BF0F80E0C6E20
:1016FE00000E0D6EF3EC18F0020E636E450E626E68
:10170E00AA0EE82EFED7622EFCD7632EFAD77C0ED9
:10171E000C6E000E0D6EF6EC15F081EF0AF0F80E61
:10172E000C6E000E0D6ED0EC18F0020E636E450EB0
:10173E00626EAA0EE82EFED7622EFCD7632EFAD763
:10174E007C0E0C6E000E0D6EB6EC15F081EF0AF0ED
:10175E0007EF00F00600F2A8B7EF0BF0B9EF0BF0B1
:10176E00C2EF0BF0F2A2BEEF0BF0C0EF0BF0C2EF28
:10177E000BF036EC1AF0F0A6C7EF0BF0C9EF0BF03A
:10178E00D2EF0BF0F0A0CEEF0BF0D0EF0BF0D2EFCC
:10179E000BF034EC1AF0F0A8D7EF0BF0D9EF0BF0FA
:1017AE00E2EF0BF0F0A2DEEF0BF0E0EF0BF0E2EF6A
:1017BE000BF032EC1AF0F2A6E7EF0BF0E9EF0BF0BC
:1017CE0004EF0CF0F2A0EEEF0BF0F0EF0BF004EFE5
:1017DE000CF081A8F5EF0BF0F7EF0BF004EF0CF027
:1017EE007B04D8A4FDEF0BF0FFEF0BF004EF0CF031
:1017FE00000E7B6E000E21EC1AF0F2A609EF0CF033
:10180E000BEF0CF026EF0CF0F2A010EF0CF012EF35
:10181E000CF026EF0CF081B817EF0CF019EF0CF06E
:10182E0026EF0CF07B50D8A41FEF0CF021EF0CF03C
:10183E0026EF0CF0010E7B6E010E21EC1AF0F2A6D3
:10184E002BEF0CF02DEF0CF048EF0CF0F2A032EF76
:10185E000CF034EF0CF048EF0CF081AA39EF0CF0DD
:10186E003BEF0CF048EF0CF07A04D8A441EF0CF0EB
:10187E0043EF0CF048EF0CF0000E7A6E000E14ECF5
:10188E001AF0F2A64DEF0CF04FEF0CF06AEF0CF0E1
:10189E00F2A054EF0CF056EF0CF06AEF0CF081BA98
:1018AE005BEF0CF05DEF0CF06AEF0CF07A50D8A401
:1018BE0063EF0CF065EF0CF06AEF0CF0010E7A6E30
:1018CE00010E14EC1AF0F2A66FEF0CF071EF0CF0A3
:1018DE008CEF0CF0F2A076EF0CF078EF0CF08CEFB2
:1018EE000CF081AC7DEF0CF07FEF0CF08CEF0CF078
:1018FE007904D8A485EF0CF087EF0CF08CEF0CF088
:10190E00000E796E000E07EC1AF0F2A691EF0CF0B5
:10191E0093EF0CF0AEEF0CF0F2A098EF0CF09AEF04
:10192E000CF0AEEF0CF081BC9FEF0CF0A1EF0CF0C1
:10193E00AEEF0CF07950D8A4A7EF0CF0A9EF0CF095
:10194E00AEEF0CF0010E796E010E07EC1AF0F2A656
:10195E00B3EF0CF0B5EF0CF0D0EF0CF0F2A0BAEF45
:10196E000CF0BCEF0CF0D0EF0CF081AEC1EF0CF030
:10197E00C3EF0CF0D0EF0CF07804D8A4C9EF0CF044
:10198E00CBEF0CF0D0EF0CF0000E786E000EFAECF0
:10199E0019F0F2A6D5EF0CF0D7EF0CF0F2EF0CF039
:1019AE00F2A0DCEF0CF0DEEF0CF0F2EF0CF081BEEB
:1019BE00E3EF0CF0E5EF0CF0F2EF0CF07850D8A45A
:1019CE00EBEF0CF0EDEF0CF0F2EF0CF0010E786E89
:1019DE00010EFAEC19F09DACF7EF0CF0F9EF0CF0EC
:1019EE0002EF0DF09EACFEEF0CF000EF0DF002EFEB
:1019FE000DF03AEC1AF09DA807EF0DF009EF0DF07F
:101A0E0012EF0DF09EA80EEF0DF010EF0DF012EF8D
:101A1E000DF038EC1AF09DAA17EF0DF019EF0DF03E
:101A2E0022EF0DF09EAA1EEF0DF020EF0DF022EF2B
:101A3E000DF03DEC1AF07E9211000A6E0A50D8B4E9
:101A4E002BEF0DF02DEF0DF04FEF0DF005BE34EF37
:101A5E000DF032EF0DF04FEF0DF002C006F003C0A7
:101A6E0007F004C008F005C009F0061E071E081E88
:101A7E00091E062A000E07220822092206C00CF0B3
:101A8E0007C00DF008C00EF009C00FF057EF0DF0B3
:101A9E0002C00CF003C00DF004C00EF005C00FF034
:101AAE000250031004100510D8A460EF0DF062EF81
:101ABE000DF06CEF0DF0000E026E000E036E000EB8
:101ACE00046E000E056EFDEF0DF0960E0B6E76EFAA
:101ADE000DF00B2AD8900F320E320D320C32000E52
:101AEE000C14066E000E0D14076E000E0E14086E0A
:101AFE00FE0E0F14096E0650071008100910D8A418
:101B0E008BEF0DF08DEF0DF070EF0DF09BEF0DF0F4
:101B1E000B2A010E0C26000E0D220E220F22D8903B
:101B2E000F320E320D320C32000E0C14066E000EF9
:101B3E000D14076E000E0E14086EFF0E0F14096EB4
:101B4E000650071008100910D8A4B0EF0DF0B2EF30
:101B5E000DF08FEF0DF0BAEF0DF00B06D8900C369E
:101B6E000D360E360F360EBEBFEF0DF0C1EF0DF077
:101B7E00C9EF0DF0020E0B60C7EF0DF0C9EF0DF0BF
:101B8E00B4EF0DF00BB0CEEF0DF0D0EF0DF0D1EFB6
:101B9E000DF00E9ED8900B320BC006F0076A086A45
:101BAE00096A06C009F0086A076A066A06500C122E
:101BBE0007500D1208500E1209500F120A50D8B4C9
:101BCE00EBEF0DF0EDEF0DF0F5EF0DF005BEF4EFD0
:101BDE000DF0F2EF0DF0F5EF0DF00F8E0CC002F0E0
:101BEE000DC003F00EC004F00FC005F0120020BEB1
:101BFE0003EF0EF006EF0EF0010E07EF0EF0000EE3
:101C0E00296E2950D8B40EEF0EF010EF0EF014EF2F
:101C1E000EF01F6C201ED8B0202A65BE1BEF0EF0F2
:101C2E0019EF0EF021EF0EF0000E246E010E236E52
:101C3E0025EF0EF064C023F065C024F08DC025F0B2
:101C4E008EC026F02950D8B42FEF0EF031EF0EF0E3
:101C5E0048EF0EF02506D8A026062950D8A43AEF54
:101C6E000EF03CEF0EF042EF0EF0000E226E2B0E39
:101C7E00216E46EF0EF0000E226E2D0E216E21C04B
:101C8E0029F0000E286E1F0E276E000E01011F6F29
:101C9E0081EF0EF02706D8A02806000E2724D96E55
:101CAE00010E2820DA6E1FC002F020C003F0000ED5
:101CBE00056E0A0E046EBAEC14F002C008F003C0F2
:101CCE0009F05AEC19F00850300FDF6E2306D8A039
:101CDE0024062506D8A026061FC002F020C003F059
:101CEE00000E056E0A0E046E3BEC13F002C01FF0E0
:101CFE0003C020F028BE8CEF0EF0285008E1270418
:101D0E00D8A08CEF0EF08EEF0EF0A4EF0EF01F5059
:101D1E002010D8A495EF0EF097EF0EF051EF0EF0C5
:101D2E0024BEA4EF0EF0245006E12304D8B0A2EF97
:101D3E000EF0A4EF0EF051EF0EF02950D8B4AAEF2A
:101D4E000EF0ACEF0EF0B7EF0EF02706D8A0280677
:101D5E00000E2724D96E010E2820DA6E29C0DFFF6F
:101D6E001DC012F01EC013F0000E2724146E010EBB
:101D7E002820156E25C016F026C017F074EC16F04C
:101D8E00120002C00CF003C00DF006500710D8A4CC
:101D9E00D3EF0EF0D5EF0EF0D7EF0EF082EF0FF07F
:101DAE000CC0D9FF0DC0DAFF04C0DFFF06500C24B3
:101DBE00086E07500D20096EFF0E0824D96EFF0E17
:101DCE000920DA6E04C0DFFF075007E1030E065C40
:101DDE00D8B0F4EF0EF0F6EF0EF0F8EF0EF082EF53
:101DEE000FF020EE01F00C50D9260D50DA2204C06F
:101DFE00DFFF20EE02F00C50D9260D50DA2204C07F
:101E0E00DFFF06500C24086E07500D20096EFE0EE3
:101E1E000824D96EFF0E0920DA6E04C0DFFF0650CB
:101E2E000C24086E07500D20096EFD0E0824D96E85
:101E3E00FF0E0920DA6E04C0DFFF075007E1070E20
:101E4E00065CD8B02DEF0FF02FEF0FF031EF0FF043
:101E5E0082EF0FF020EE03F00C50D9260D50DA224F
:101E6E0004C0DFFF06500C24086E07500D20096ECB
:101E7E00FC0E0824D96EFF0E0920DA6E04C0DFFFB7
:101E8E00075007E1090E065CD8B050EF0FF052EF85
:101E9E000FF054EF0FF082EF0FF00CC008F00DC0F2
:101EAE0009F0081E091E084A092A030E08140A6EB4
:101EBE000B6A0A500C260B500D220A50065E0B5070
:101ECE00075AFC0E0616FF0E071679EF0FF00CC020
:101EDE00D9FF0DC0DAFF04C0DFFF0606D8A0070643
:101EEE000C4A0D2A06500710D8A480EF0FF082EF8F
:101EFE000FF06EEF0FF01200010E0A6E025003107B
:101F0E00D8B48CEF0FF08EEF0FF09FEF0FF002C0F2
:101F1E00D9FF03C0DAFFDF30E832E832070B046E78
:101F2E00070E04649DEF0FF09FEF0FF002EF10F01D
:101F3E00000E0A6E23EF10F002C0D9FF03C0DAFFC5
:101F4E00DF30E832E832070B046E010E056E042A0C
:101F5E00B3EF0FF0D8900536042EB1EF0FF0055009
:101F6E00FF0A066E02C0D9FF03C0DAFFDF50070B6F
:101F7E00076E0750020DE10EF324D96E000EF42009
:101F8E00DA6EDECF08F0DDCF09F008C0D9FF09C048
:101F9E00DAFF0650DF1623EF10F002C0D9FF03C0A0
:101FAE00DAFFDF30E832E832070B046E010E056E01
:101FBE00042AE4EF0FF0D8900536042EE2EF0FF06E
:101FCE0002C0D9FF03C0DAFFDF50070B066E0650C2
:101FDE00020DE10EF324D96E000EF420DA6EDECF80
:101FEE0007F0DDCF08F007C0D9FF08C0DAFF0550B3
:101FFE00DF1223EF10F002C0D9FF03C0DAFFDFBCFF
:10200E000BEF10F00EEF10F0010E0FEF10F0000EB0
:10201E00046E056A0550000AD8B418EF10F09FEF51
:10202E000FF00450000AD8B4A3EF0FF0010AD8B491
:10203E00D4EF0FF09FEF0FF00A5012002CC0D9FF13
:10204E002DC0DAFFDECFF6FFDDCFF7FFF86A08000E
:10205E00F550250AD8A436EF10F038EF10F0A5EFA2
:10206E0010F02CC0D9FF2DC0DAFFDE2A000EDD22C3
:10207E00000E00018E6F000E8D6F8DC06AF06468C9
:10208E0065682CC0D9FF2DC0DAFFDECF36F0DDCF6C
:10209E0037F036C0F6FF37C0F7FFF86A0800F55084
:1020AE00640AD8B45DEF10F05FEF10F06EEF10F031
:1020BE0036C0F6FF37C0F7FFF86A0800F550690A18
:1020CE00D8A46CEF10F06EEF10F09CEF10F02EC055
:1020DE00D9FF2FC0DAFFDFCF30F0020EDE26DFCFC2
:1020EE0031F0000EDD2230C0D9FF31C0DAFFDECF75
:1020FE0032F0DDCF33F0010E3624306E000E372075
:10210E00316E2CC0D9FF2DC0DAFF30C0DEFF31C0DA
:10211E00DDFF2AC01DF02BC01EF032C01FF033C0F1
:10212E0020F0FEEC0DF0BAEF10F02CC0D9FF2DC050
:10213E00DAFFDE2A000EDD22BAEF10F02CC0D9FF36
:10214E002DC0DAFFDECFF6FFDDCFF7FFF86A08000D
:10215E00F550026E036A2AC004F02BC005F0D6ECCF
:10216E0012F09CEF10F01200000E186E14501510A5
:10217E00D8A4C4EF10F0C6EF10F0CAEF10F0000EA6
:10218E00196E4FEF11F014C00CF015C00DF0CEEC1F
:10219E0017F0196E010E14240C6E000E15200D6E24
:1021AE00CEEC17F0196E000E186E18501424166E21
:1021BE00000E1520176E020E16240C6E000E172040
:1021CE000D6ECEEC17F0182A030E1864F1EF10F016
:1021DE00F3EF10F0DCEF10F01A0E166EF80EE82E7C
:1021EE00FED7162EFCD700D014C010F015C011F07B
:1021FE00380E126E5EEC17F0070E166E7D0EE82E80
:10220E00FED7162EFCD700F014C010F015C011F03A
:10221E00380E126E5EEC17F0320EE82EFED714C09A
:10222E0010F015C011F0380E126E5EEC17F014C0DF
:10223E0010F015C011F0010E126E5EEC17F014C006
:10224E0010F015C011F0020E126E5EEC17F014C0F5
:10225E0010F015C011F0060E126E5EEC17F014C0E1
:10226E0010F015C011F00C0E126E5EEC17F014C0CB
:10227E0010F015C011F0280E126E5EEC17F014C09F
:10228E0010F015C011F0800E126E5EEC17F0196E84
:10229E0019501200010E0B6E02500310D8B45AEFF3
:1022AE0011F05CEF11F06DEF11F002C0D9FF03C019
:1022BE00DAFFDF30E832E832070B056E070E0564F1
:1022CE006BEF11F06DEF11F0D0EF11F0000E0B6E01
:1022DE00E5EF11F002C0D9FF03C0DAFFDF30E832BC
:1022EE00E832070B056E010E066E052A81EF11F01E
:1022FE00D8900636052E7FEF11F00650FF0A076EB6
:10230E0002C0D9FF03C0DAFFDF50070B086E08507A
:10231E00020DD70EF324D96E000EF420DA6EDECF46
:10232E0009F0DDCF0AF009C0D9FF0AC0DAFF075065
:10233E00DF16E5EF11F002C0D9FF03C0DAFFDF3080
:10234E00E832E832070B056E010E066E052AB2EF73
:10235E0011F0D8900636052EB0EF11F002C0D9FF5D
:10236E0003C0DAFFDF50070B076E0750020DD70EC2
:10237E00F324D96E000EF420DA6EDECF08F0DDCF36
:10238E0009F008C0D9FF09C0DAFF0650DF12E5EFE9
:10239E0011F00450056E066A0650000AD8B4DAEF42
:1023AE0011F06DEF11F00550000AD8B471EF11F075
:1023BE00010AD8B4A2EF11F06DEF11F00B5012001C
:1023CE002B342C34326E3250D8A4F0EF11F0F2EFE1
:1023DE0011F0FCEF11F0000E296E000E2A6E000EA9
:1023EE002B6E000E2C6E69EF12F029C02DF02AC054
:1023FE002EF02BC02FF02CC030F0200E0CEF12F070
:10240E00D89030322F322E322D32E82E07EF12F0C6
:10241E002D50316E2B8EFF0E2916FF0E2A16FF0E33
:10242E002B16000E2C16960E325E32BE23EF12F0D5
:10243E0021EF12F039EF12F03250800A970FD8B018
:10244E002BEF12F02DEF12F02FEF12F0F2EF11F042
:10245E00D8902C322B322A322932323E2FEF12F004
:10246E0051EF12F01F0E32643FEF12F041EF12F0F7
:10247E0049EF12F0F2EF11F0D89029362A362B36AA
:10248E002C3632063250D8A44FEF12F051EF12F024
:10249E0043EF12F03150D8B457EF12F059EF12F05B
:1024AE0061EF12F02C1E2B1E2A1E296C000E2A2202
:1024BE002B222C2229C029F02AC02AF02BC02BF067
:1024CE002CC02CF01200046E94EF12F09280D5EF17
:1024DE0012F09282D5EF12F09284D5EF12F092861E
:1024EE00D5EF12F0928AD5EF12F09680D5EF12F05A
:1024FE009682D5EF12F09684D5EF12F09384D5EF35
:10250E0012F09386D5EF12F09382D5EF12F09388E6
:10251E00D5EF12F09380D5EF12F00450026E036ADD
:10252E000350000AD8B49EEF12F0D5EF12F002500D
:10253E00000AD8B46DEF12F0010AD8B470EF12F0A1
:10254E00030AD8B473EF12F0010AD8B476EF12F082
:10255E00070AD8B479EF12F0010AD8B47CEF12F062
:10256E00030AD8B47FEF12F0010AD8B482EF12F04A
:10257E000F0AD8B485EF12F0010AD8B488EF12F022
:10258E00030AD8B48BEF12F0010AD8B48EEF12F012
:10259E00070AD8B491EF12F0D5EF12F012000450E2
:1025AE000510D8B4DDEF12F0DFEF12F0E8EF12F005
:1025BE0004500510D8A4E6EF12F0E8EF12F0EDEF9C
:1025CE0012F002503CEC1AF03AEF13F020EE0AF043
:1025DE000450D9260550DA22DE50DE10D8B4FAEFB8
:1025EE0012F0FCEF12F017EF13F020EE0AF0045089
:1025FE00D9260550DA2210EE03F00450E1260550DC
:10260E00E222DE50E65CE650800A0A6EDE50800A58
:10261E000A58D8B015EF13F017EF13F03AEF13F086
:10262E0020EE03F00450D9260550DA22DECF06F054
:10263E00DDCF07F004C0D9FF05C0DAFFDECF08F00A
:10264E00DDCF09F006500824D96E07500920DA6E46
:10265E0002C0DFFF20EE03F00450D9260550DA2227
:10266E00DE2A000EDD221200000E076E05BE44EFBC
:10267E0013F042EF13F04AEF13F0046C051ED8B0BE
:10268E00052A010E076E03BE51EF13F04FEF13F044
:10269E0057EF13F0026C031ED8B0032A010E071A6F
:1026AE00000E096E000E086E04500510D8B462EFCD
:1026BE0013F064EF13F08CEF13F0010E066E6CEF57
:1026CE0013F0D89004360536062A05AE71EF13F0D6
:1026DE0073EF13F068EF13F0D890083609360450F4
:1026EE00025C05500358D8A07FEF13F081EF13F072
:1026FE0086EF13F00450025E0550035A0880D890FE
:10270E0005320432062E73EF13F00750D8B492EF51
:10271E0013F094EF13F098EF13F0086C091ED8B075
:10272E00092A08C002F009C003F01200025003107B
:10273E00D8B4A4EF13F0A6EF13F0AFEF13F00450DC
:10274E000510D8A4ADEF13F0AFEF13F0B3EF13F005
:10275E00000E096EFDEF13F020EE06F00250D926A2
:10276E000350DA22DFA2BEEF13F0C0EF13F0D4EF66
:10277E0013F0C350C4CF06F0076A06C007F0066A0E
:10278E000626000E072204C0D9FF05C0DAFF06C0D8
:10279E00DEFF07C0DDFFFBEF13F020EE06F0025068
:1027AE00D9260350DA22DFB2DFEF13F0E1EF13F098
:1027BE00C0EF13F0C350C4CF06F0076A06C007F08F
:1027CE00066A0626000E0722060E086E073407322A
:1027DE000632082EEDEF13F004C0D9FF05C0DAFF64
:1027EE0006C0DEFF07C0DDFF010E096E09501200A4
:1027FE0005500610D8A406EF14F008EF14F00CEFF5
:10280E0014F0000E086E5DEF14F0C29020EE03F08F
:10281E000550D9260650DA22DF50076E07460746C6
:10282E000746C0500718C70B0718C06E20EE04F0FD
:10283E000550D9260650DA22DF50076EC050071811
:10284E00F80B0718C06E20EE05F00550D92606507D
:10285E00DA22DF50076E07460746C2500718C30B31
:10286E000718C26E20EE05F00550D9260650DA2262
:10287E00DF506AEC12F0F28EF28C9D8C9E9C05C09D
:10288E00D9FF06C0DAFFDECFBDF0DDCFBEF005C04A
:10289E0002F006C003F038EC19F005C002F006C0D5
:1028AE0003F0ABEC18F0C280010E086E0850120057
:1028BE00010E606E20EE5AF0050EDE6AE806FDE2AD
:1028CE00000E616E58505910D8A470EF14F072EFCC
:1028DE0014F076EF14F0000E606EB8EF14F058C0DE
:1028EE0002F059C003F0000E056E200E046E000EAD
:1028FE00076E050E066EC8EC0EF020EE05F0585071
:10290E00D9265950DA22DF6A5A0E406E000E416EF9
:10291E00390E426E100E436E56C044F057C045F04D
:10292E0060EC18F0AAEF14F05A0E6124D96EDA6A30
:10293E00000EDA2261505824E16E000E5920E26E2C
:10294E00DFCFE7FF612A5A0E6124D96EDA6A000ED4
:10295E00DA22DF50D8A4B6EF14F0B8EF14F09BEFE4
:10296E0014F060501200000E076E03BEC3EF14F099
:10297E00C1EF14F0C9EF14F0026C031ED8B0032A95
:10298E00010E076E05BED0EF14F0CEEF14F0D4EFAB
:10299E0014F0046C051ED8B0052A04500510D8B4E6
:1029AE00DBEF14F0DDEF14F001EF15F0010E066E03
:1029BE00E5EF14F0D89004360536062A05AEEAEF98
:1029CE0014F0ECEF14F0E1EF14F00450025C05503B
:1029DE000358D8A0F5EF14F0F7EF14F0FBEF14F056
:1029EE000450025E0550035AD89005320432062E6A
:1029FE00ECEF14F00750D8B407EF15F009EF15F00F
:102A0E000DEF15F0026C031ED8B0032A02C002F0BF
:102A1E0003C003F01200010E1A6E170647EF15F0F1
:102A2E0014C010F015C011F01750800F126E5EEC2E
:102A3E0017F01A6E64EF15F014C010F015C011F0F7
:102A4E001750C00F126E5EEC17F01A6E64EF15F091
:102A5E0014C010F015C011F01750940F126E5EECEA
:102A6E0017F01A6E64EF15F014C010F015C011F0C7
:102A7E001750D40F126E5EEC17F01A6E64EF15F04D
:102A8E001650186E196A1950000AD8B451EF15F085
:102A9E0064EF15F01850010AD8B417EF15F0030AB9
:102AAE00D8B423EF15F0010AD8B42FEF15F0070AAA
:102ABE00D8B43BEF15F064EF15F01A5012001B500E
:102ACE001C10D8A46DEF15F06FEF15F073EF15F025
:102ADE00000E216EB4EF15F01BC014F01CC015F0E3
:102AEE001DC016F01EC017F012EC15F0216E9BEFF4
:102AFE0015F01BC010F01CC011F01FC0F6FF20C057
:102B0E00F7FF000EF86E0F0EF76403D00800F550B5
:102B1E0005D0F6CFE9FFF7CFEAFFEF50126E25ECA6
:102B2E0017F0216E1F4A202A1FC0F6FF20C0F7FFA4
:102B3E00000EF86E0F0EF76403D00800F55005D0A6
:102B4E00F6CFE9FFF7CFEAFFEF500009D8A4B2EFB6
:102B5E0015F0B4EF15F080EF15F021501200010EB4
:102B6E000F6E0C500D10D8A4BFEF15F0C1EF15F07D
:102B7E00C5EF15F0000E0F6EF4EF15F071C010F0EA
:102B8E000CC0D9FF0DC0DAFFDF500F0B0E6E1050C8
:102B9E000E18F80B0E18106E0CC0D9FF0DC0DAFF10
:102BAE00DF38070B0E6E0E460E460E4610500E18F0
:102BBE00C70B0E18106E109C0CC0D9FF0DC0DAFF9B
:102BCE00DFAE02D0108E01D0109E100E026E000EDF
:102BDE00036E010E046E51EC11F00F501200010E37
:102BEE000F6E0C500D10D8A4FFEF15F001EF16F07C
:102BFE0005EF16F0000E0F6E34EF16F070C010F0E9
:102C0E000CC0D9FF0DC0DAFFDF500F0B0E6E105047
:102C1E000E18F80B0E18106E0CC0D9FF0DC0DAFF8F
:102C2E00DF38070B0E6E0E460E460E4610500E186F
:102C3E00C70B0E18106E109C0CC0D9FF0DC0DAFF1A
:102C4E00DFAE02D0108E01D0109E100E026E000E5E
:102C5E00036E000E046E51EC11F00F501200010EB7
:102C6E00136E10501110D8A43FEF16F041EF16F06E
:102C7E0045EF16F0000E136E72EF16F072C014F0E0
:102C8E0010C0D9FF11C0DAFFDF500F0B126E1450B7
:102C9E001218F80B1218146E10C0D9FF11C0DAFFFB
:102CAE00DF38070B126E12461246124614501218D7
:102CBE00C70B1218146E149C10C0D9FF11C0DAFF86
:102CCE00DFAE02D0148E01D0149E140E0C6E000EC8
:102CDE000D6ECEEC17F01350120017BE79EF16F0F2
:102CEE007BEF16F081EF16F016C01BF017C01CF02C
:102CFE0085EF16F0000E1C6E000E1B6E000E1A6E87
:102D0E00000E196E97EF16F0000E036E200E026E77
:102D1E0012C004F013C005F0D6EC12F0194A1A2AAC
:102D2E001B50195C1A50800A186E1C50800A1858D5
:102D3E00D8A0A4EF16F0A6EF16F08BEF16F014C085
:102D4E000BF015C00CF012C00DF013C00EF016EC07
:102D5E0019F01200000E076E000E066E04500510DC
:102D6E00D8B4BCEF16F0BEEF16F0E6EF16F0010E7B
:102D7E00086EC6EF16F0D89004360536082A05AE52
:102D8E00CBEF16F0CDEF16F0C2EF16F0D890063658
:102D9E0007360450025C05500358D8A0D9EF16F040
:102DAE00DBEF16F0E0EF16F00450025E0550035A0A
:102DBE000680D89005320432082ECDEF16F006C0EC
:102DCE0002F007C003F012000A500B10D8B4F2EF55
:102DDE0016F0F4EF16F0FDEF16F00D500E10D8A40D
:102DEE00FBEF16F0FDEF16F001EF17F0000E0F6E71
:102DFE0023EF17F00AC005F00BC006F00CC007F069
:102E0E0099EC19F00F6E0AC002F00BC003F0E8EC5B
:102E1E0019F00F6EC2B216EF17F018EF17F011EF90
:102E2E0017F00AC002F00BC003F00DC004F00EC084
:102E3E0005F09DEC13F00F6E0F5012001050111094
:102E4E00D8A42CEF17F02EEF17F032EF17F0000E7C
:102E5E00136E5CEF17F010C002F011C003F0010EFC
:102E6E00046E51EC11F0136E10C00CF011C00DF089
:102E7E0012380F0B0E6E04EC18F0136E10C00CF01F
:102E8E0011C00DF0B6EC19F0136E10C00CF011C09D
:102E9E000DF012C00EF004EC18F0136E10C00CF012
:102EAE0011C00DF0B6EC19F0136E13501200105045
:102EBE001110D8A465EF17F067EF17F06BEF17F04E
:102ECE00000E136E95EF17F010C002F011C003F054
:102EDE00000E046E51EC11F0136E10C00CF011C008
:102EEE000DF012380F0B0E6E04EC18F0136E10C0AE
:102EFE000CF011C00DF0B6EC19F0136E10C00CF002
:102F0E0011C00DF012C00EF004EC18F0136E10C0CC
:102F1E000CF011C00DF0B6EC19F0136E1350120038
:102F2E00A00EF66E330EF76E000EF86E00EECDF0BC
:102F3E0010EE2FF00900F5CFEEFFE550E150FAE16B
:102F4E005C0EF66E340EF76E000EF86E00EE77F035
:102F5E0010EE07F00900F5CFEEFFE550E150FAE173
:102F6E0001EE00F0200EEE6AE806FDE100EE80F0C4
:102F7E004D0EEE6AE806FDE100EE64F0130EEE6A09
:102F8E00E806FDE17E907E92000134EF0AF00C50CF
:102F9E000D10D8B4D5EF17F0D7EF17F0E8EF17F004
:102FAE000CC0D9FF0DC0DAFFDF30E832E832070B74
:102FBE000E6E070E0E64E6EF17F0E8EF17F0ECEF6B
:102FCE0017F0000E0F6E02EF18F00CC002F00DC0DD
:102FDE0003F083EC0FF00F6E0CC002F00DC003F087
:102FEE000CC0D9FF0DC0DAFF000EDFBE010E046E5D
:102FFE0051EC11F00F6E0F501200020E0C24026EE7
:10300E00000E0D20036E0E50010B046E51EC11F0EC
:10301E00030E0C24026E000E0D20036ED8900E309F
:10302E00010B046E51EC11F0040E0C24026E000E16
:10303E000D20036E0E40E8423F0B010B046E51EC67
:10304E0011F0050E0C24026E000E0D20036E0E38CC
:10305E00E8461F0B010B046E51EC11F00F6E0F5072
:10306E0012003AC03EF03BC03FF04CEF18F038C0B3
:10307E002AF039C02BF03E0E2C6E000E2D6E3CC089
:10308E002EF03DC02FF025EC10F03EC0F6FF3FC0F5
:10309E00F7FFF86A0800F5500009D8A459EF18F0A8
:1030AE005BEF18F03EEF18F0000E396E000E386E22
:1030BE001200440E486E000E496E40C04AF041C0E8
:1030CE004BF0000E4E6E000E4D6E000E556E000E45
:1030DE00546E4A0E386E000E396E42C03AF043C03E
:1030EE003BF0480E3C6E000E3D6E38EC18F04D5025
:1030FE004024D96E4E504120DA6EDF6A1200F20E75
:10310E00146E000E156EBBEC10F0EB0E056E000E7D
:10311E00066EFFEC13F0FA0E106E000E116E7AECC6
:10312E0019F0F80E106E000E116E7AEC19F07D0E7D
:10313E00106E000E116E36EC16F07C0E106E000E38
:10314E00116E36EC16F0120020EE06F00250D92663
:10315E000350DA22DFA0B6EF18F0B8EF18F0BCEF8C
:10316E0018F0C18AC188CFEF18F020EE06F0025099
:10317E00D9260350DA22DFB0C7EF18F0C9EF18F0E6
:10318E00CDEF18F0C19AC198CFEF18F0C19AC1983F
:10319E001200010E0E6E0C500D10D8A4D9EF18F0BF
:1031AE00DBEF18F0DFEF18F0000E0E6EF1EF18F0F7
:1031BE000CC002F00DC003F0000E046E51EC11F0C5
:1031CE00010E0C24026E000E0D20036E000E046E16
:1031DE0051EC11F00E501200010E0E6E0C500D102F
:1031EE00D8A4FCEF18F0FEEF18F002EF19F0000E65
:1031FE000E6E14EF19F00CC002F00DC003F0010EAC
:10320E00046E51EC11F0010E0C24026E000E0D2016
:10321E00036E000E046E51EC11F00E501200000EF3
:10322E00116E000E106E27EF19F00FC002F0036A38
:10323E000DC004F00EC005F0D6EC12F0104A112AA3
:10324E0010500B24D96E11500C20DA6EDF500F6E19
:10325E000F50D8A435EF19F037EF19F01CEF19F015
:10326E00120020EE06F00250D9260350DA22DFA219
:10327E0043EF19F045EF19F048EF19F0C08E59EFF2
:10328E0019F020EE06F00250D9260350DA22DFB2F2
:10329E0053EF19F055EF19F058EF19F0C09E59EF92
:1032AE0019F0C08E120009BE67EF19F0095006E141
:1032BE000804D8B065EF19F067EF19F075EF19F043
:1032CE0008C00AF009C00BF00A1E0B1E0A4A0B2A90
:1032DE000AC008F00BC009F079EF19F008C008F029
:1032EE0009C009F01200010E126E10501110D8A470
:1032FE0083EF19F085EF19F089EF19F0000E126EB9
:10330E0097EF19F010C00CF011C00DF0CEEC17F0C5
:10331E00010E10240C6E000E11200D6ECEEC17F067
:10332E001250120005500610D8A4A0EF19F0A2EF0B
:10333E0019F0A6EF19F0000E096EB4EF19F007C0E0
:10334E0008F008460846C2500818C30B0818C26E8B
:10335E0007506AEC12F0010E096E09501200010EB0
:10336E000C24026E000E0D20036E010E046E51EC45
:10337E0011F000D000D000F0010E0C24026E000EF1
:10338E000D20036E000E046E51EC11F00E6E0E50F9
:10339E001200800F810F820F830F840F890F8A0F07
:1033AE008B0F8C0F8D0F920F930F940F950F960F0F
:1033BE0000000005050002020A121A222A131B033E
:0133CE000BF3
:1033D00002500310D8A4EFEF19F0F1EF19F0F5EF58
:1033E00019F0000E046EF8EF19F0C282010E046E9F
:1033F00004501200016EF2900150D8A402EF1AF0AE
:1034000004EF1AF006EF1AF006EF1AF01200016E40
:10341000F2900150D8A40FEF1AF011EF1AF013EF49
:103420001AF013EF1AF01200016EF2900150D8A4B6
:103430001CEF1AF01EEF1AF020EF1AF020EF1AF02E
:103440001200016EF2900150D8A429EF1AF02BEF70
:103450001AF02DEF1AF02DEF1AF012000101010100
:03346000015343D2
:10346400F0921200F0901200F29212009D98120055
:083474009E9C120012001200E0
:020000040020DA
:08000000FFFFFFFFFFFFFFFF00
:020000040030CA
:0E000000FF02091EFF8181FF0FC00FE00F40BD
:00000001FF
